:020000040800F2
:1000000000000120CD2B0008752900087B2900087D
:1000100081290008872900088D29000800000000B8
:10002000000000000000000000000000932900080C
:10003000A129000800000000AF290008BD29000820
:100040001D2C00081D2C00081D2C00081D2C00086C
:100050001D2C00081D2C00081D2C00081D2C00085C
:100060001D2C00081D2C00081D2C00081D2C00084C
:100070001D2C00081D2C00081D2C00081D2C00083C
:100080001D2C00081D2C00081D2C0008000000007D
:100090000000000000000000000000001D2C00080F
:1000A0001D2C00081D2C00081D2C00081D2C00080C
:1000B000C92900081D2C00081D2C0008DD29000896
:1000C000F12900081D2C00081D2C00081D2C00081B
:1000D0001D2C00081D2C0008052A00080000000047
:1000E0001D2C00081D2C00081D2C0008000000001D
:1000F0000000000000000000000000001D2C0008AF
:10010000000000001D2C00081D2C00081D2C0008FC
:1001100000000000000000000000000000000000DF
:100120001D2C00081D2C00081D2C00081D2C00088B
:100130001D2C00080000000000000000000000006E
:100140000000000000000000000000001D2C00085E
:100150001D2C00081D2C00081D2C00081D2C00085B
:100160001D2C00081D2C00080000000000000000ED
:10017000000000000000000000000000000000007F
:10018000000000001D2C000800000000000000001E
:040190001D2C00081A
:1001A00010B5054C237833B9044B13B10448AFF3B1
:1001B00000800123237010BD6002002000000000B9
:1001C000A0AD000808B5034B1BB103490348AFF3CA
:1001D000008008BD0000000064020020A0AD0008FF
:1001E00001F0FF01102A2BDB10F0070F08D010F8E8
:1001F000013B013A8B422DD010F0070F42B3F6D1EC
:10020000F0B441EA012141EA014122F007047FF004
:1002100000070023F0E80256083C85EA010586EA5B
:10022000010685FA47F5A3FA87F586FA47F6A5FA97
:1002300087F68EB9EED1F0BC01F0FF0102F00702A3
:1002400032B110F8013B013A83EA010313B1F8D14E
:100250000020704701387047002D06BF354603382F
:10026000073815F0010F07D1013015F4807F02BF68
:10027000013015F4C03F0130F0BC0138704700BFB9
:10028000034613F8012B002AFBD1181A01387047D6
:1002900081F0004102E000BF83F0004330B54FEA37
:1002A00041044FEA430594EA050F08BF90EA020FA4
:1002B0001FBF54EA000C55EA020C7FEA645C7FEA37
:1002C000655C00F0E2804FEA5454D4EB5555B8BF5A
:1002D0006D420CDD2C4480EA020281EA030382EACB
:1002E000000083EA010180EA020281EA0303362D5D
:1002F00088BF30BD11F0004F4FEA01314FF4801C30
:100300004CEA113102D0404261EB410113F0004F41
:100310004FEA03334CEA133302D0524263EB4303F8
:1003200094EA050F00F0A780A4F10104D5F1200E96
:100330000DDB02FA0EFC22FA05F2801841F10001F1
:1003400003FA0EF2801843FA05F359410EE0A5F1C5
:1003500020050EF1200E012A03FA0EFC28BF4CF0F6
:10036000020C43FA05F3C01851EBE37101F00045AC
:1003700007D54FF0000EDCF1000C7EEB00006EEBB9
:100380000101B1F5801F1BD3B1F5001F0CD3490843
:100390005FEA30004FEA3C0C04F101044FEA44529A
:1003A00012F5800F80F09A80BCF1004F08BF5FEA21
:1003B000500C50F1000041EB045141EA050130BD01
:1003C0005FEA4C0C404141EB0101013C28BFB1F513
:1003D000801FE9D291F0000F04BF01460020B1FA5E
:1003E00081F308BF2033A3F10B03B3F120020CDA31
:1003F0000C3208DD02F1140CC2F10C0201FA0CF00F
:1004000021FA02F10CE002F11402D8BFC2F1200C73
:1004100001FA02F120FA0CFCDCBF41EA0C01904029
:10042000E41AA2BF01EB0451294330BD6FEA040472
:100430001F3C1CDA0C340EDC04F11404C4F120025D
:1004400020FA04F001FA02F340EA030021FA04F36F
:1004500045EA030130BDC4F10C04C4F1200220FAC6
:1004600002F001FA04F340EA0300294630BD21FA04
:1004700004F0294630BD94F0000F83F4801306BFCA
:1004800081F480110134013D4EE77FEA645C18BFBE
:100490007FEA655C29D094EA050F08BF90EA020F55
:1004A00005D054EA000C04BF1946104630BD91EA4D
:1004B000030F1EBF0021002030BD5FEA545C05D150
:1004C0004000494128BF41F0004130BD14F580048F
:1004D0003CBF01F5801130BD01F0004545F0FE4103
:1004E00041F470014FF0000030BD7FEA645C1ABF38
:1004F000194610467FEA655C1CBF0B46024650EA6F
:10050000013406BF52EA033591EA030F41F400219A
:1005100030BD00BF90F0000F04BF0021704730B520
:100520004FF4806404F132044FF000054FF00001F5
:1005300050E700BF90F0000F04BF0021704730B5B6
:100540004FF4806404F1320410F0004548BF40428B
:100550004FF000013EE700BF42004FEAE2014FEAE0
:1005600031014FEA02701FBF12F07F4393F07F4FBB
:1005700081F06051704732F07F4208BF704793F0BE
:100580007F4F04BF41F40021704730B54FF46074D1
:1005900001F0004521F000411CE700BF50EA0102D4
:1005A00008BF704730B54FF000050AE050EA01027D
:1005B00008BF704730B511F0004502D5404261EBED
:1005C00041014FF4806404F132045FEA915C3FF42E
:1005D000D8AE4FF003025FEADC0C18BF03325FEACB
:1005E000DC0C18BF033202EBDC02C2F1200300FA7C
:1005F00003FC20FA02F001FA03FE40EA0E0021FAA1
:1006000002F11444BDE600BF70B54FF0FF0C4CF48E
:10061000E06C1CEA11541DBF1CEA135594EA0C0F40
:1006200095EA0C0F00F0DEF82C4481EA030621EA7B
:100630004C5123EA4C5350EA013518BF52EA0335B6
:1006400041F4801143F4801338D0A0FB02CE4FF068
:100650000005E1FB02E506F00042E0FB03E54FF098
:100660000006E1FB03569CF0000F18BF4EF0010E90
:10067000A4F1FF04B6F5007F64F5407404D25FEA8C
:100680004E0E6D4146EB060642EAC62141EA55513F
:100690004FEAC52040EA5E504FEACE2EB4F1FD0C81
:1006A00088BFBCF5E06F1ED8BEF1004F08BF5FEAFF
:1006B000500E50F1000041EB045170BD06F00046B1
:1006C00046EA010140EA020081EA0301B4EB5C045E
:1006D000C2BFD4EB0C0541EA045170BD41F4801156
:1006E0004FF0000E013C00F3AB8014F1360FDEBF7B
:1006F000002001F0004170BDC4F10004203C35DA57
:100700000C341BDC04F11404C4F1200500FA05F3D9
:1007100020FA04F001FA05F240EA020001F000427A
:1007200021F0004110EBD37021FA04F642EB0601F0
:100730005EEA430E08BF20EAD37070BDC4F10C041A
:10074000C4F1200500FA04F320FA05F001FA04F2DE
:1007500040EA020001F0004110EBD37041F10001CA
:100760005EEA430E08BF20EAD37070BDC4F12005D5
:1007700000FA05F24EEA020E20FA04F301FA05F23D
:1007800043EA020321FA04F001F0004121FA04F2E5
:1007900020EA020000EBD3705EEA430E08BF20EAB5
:1007A000D37070BD94F0000F0FD101F000464000EF
:1007B00041EB010111F4801F08BF013CF7D041EA71
:1007C000060195F0000F18BF704703F00046520075
:1007D00043EB030313F4801F08BF013DF7D043EA46
:1007E0000603704794EA0C0F0CEA135518BF95EAFC
:1007F0000C0F0CD050EA410618BF52EA4306D1D183
:1008000081EA030101F000414FF0000070BD50EAA1
:10081000410606BF1046194652EA430619D094EA2B
:100820000C0F02D150EA013613D195EA0C0F05D115
:1008300052EA03361CBF104619460AD181EA030169
:1008400001F0004141F0FE4141F470014FF0000021
:1008500070BD41F0FE4141F4780170BD70B54FF0BC
:10086000FF0C4CF4E06C1CEA11541DBF1CEA13553C
:1008700094EA0C0F95EA0C0F00F0A7F8A4EB05041E
:1008800081EA030E52EA03354FEA013100F0888015
:100890004FEA03334FF0805545EA131343EA1263DE
:1008A0004FEA022245EA111545EA10654FEA002693
:1008B0000EF000419D4208BF964244F1FD0404F54C
:1008C000407402D25B084FEA3202B61A65EB0305A8
:1008D0005B084FEA32024FF480104FF4002CB6EB65
:1008E000020E75EB030E22BFB61A754640EA0C00E5
:1008F0005B084FEA3202B6EB020E75EB030E22BF25
:10090000B61A754640EA5C005B084FEA3202B6EB65
:10091000020E75EB030E22BFB61A754640EA9C0024
:100920005B084FEA3202B6EB020E75EB030E22BFF4
:10093000B61A754640EADC0055EA060E18D04FEAB2
:10094000051545EA16754FEA06164FEAC30343EA52
:1009500052734FEAC2025FEA1C1CC0D111F4801F1F
:100960000BD141EA00014FF000004FF0004CB6E718
:1009700011F4801F04BF01430020B4F1FD0C88BFB7
:10098000BCF5E06F3FF6AFAEB5EB030C04BFB6EBC2
:10099000020C5FEA500C50F1000041EB045170BDB5
:1009A0000EF0004E4EEA113114EB5C04C2BFD4EBE2
:1009B0000C0541EA045170BD41F480114FF0000E66
:1009C000013C90E645EA060E8DE60CEA135594EAE2
:1009D0000C0F08BF95EA0C0F3FF43BAF94EA0C0FE5
:1009E0000AD150EA01347FF434AF95EA0C0F7FF45A
:1009F00025AF104619462CE795EA0C0F06D152EAAE
:100A000003353FF4FDAE1046194622E750EA410691
:100A100018BF52EA43067FF4C5AE50EA41047FF4A2
:100A20000DAF52EA43057FF4EBAE12E74FF0FF3C07
:100A300006E000BF4FF0010C02E000BF4FF0010CD8
:100A40004DF804CD4FEA410C7FEA6C5C4FEA430C51
:100A500018BF7FEA6C5C1BD001B050EA410C0CBFA0
:100A600052EA430C91EA030F02BF90EA020F002002
:100A7000704710F1000F91EA030F58BF994208BF69
:100A800090422CBFD8176FEAE37040F00100704726
:100A90004FEA410C7FEA6C5C02D150EA013C07D17D
:100AA0004FEA430C7FEA6C5CD6D152EA033CD3D0C8
:100AB0005DF8040B704700BF8446104662468C46C2
:100AC0001946634600E000BF01B5FFF7B7FF0028F5
:100AD00048BF10F1000F01BD4DF808EDFFF7F4FF1E
:100AE0000CBF012000205DF808FB00BF4DF808EDA9
:100AF000FFF7EAFF34BF012000205DF808FB00BFCC
:100B00004DF808EDFFF7E0FF94BF012000205DF8ED
:100B100008FB00BF4DF808EDFFF7CEFF94BF0120A2
:100B200000205DF808FB00BF4DF808EDFFF7C4FF9B
:100B300034BF012000205DF808FB00BF4FEA410CE4
:100B40007FEA6C5C02D150EA013C0AD14FEA430CC7
:100B50007FEA6C5C02D152EA033C02D14FF0000004
:100B600070474FF0010070474FEA410212F5001242
:100B700015D211D56FF47873B3EB625212D94FEAE4
:100B8000C12343F0004343EA505311F0004F23FACE
:100B900002F018BF404270474FF00000704750EA23
:100BA000013005D111F0004008BF6FF000407047E0
:100BB0004FF00000704700BF4FEA4102B2F1E0433E
:100BC00024BFB3F5001CDCF1FE5C0DD901F0004C34
:100BD0004FEAC0024CEA5070B2F1004F40EB830084
:100BE00008BF20F00100704711F0804F21D113F1B0
:100BF0003872BCBF01F00040704741F480114FEAE9
:100C00005252C2F11802C2F1200C10FA0CF320FA71
:100C100002F018BF40F001004FEAC1234FEAD3238E
:100C200003FA0CFC40EA0C0023FA02F34FEA4303F8
:100C3000CCE77FEA625307D150EA01331EBF4FF081
:100C4000FE4040F44000704701F0004040F0FE409C
:100C500040F40000704700BF53B94AB9002908BFEB
:100C600000281CBF4FF0FF314FF0FF3000F070B98B
:100C7000ADF1080C6DE904CE00F006F8DDF804E0F3
:100C8000DDE9022304B070472DE9F047089E0D46C8
:100C900004460F46002B4AD18A42944665D9B2FADF
:100CA00082F343B102FA03FCC3F120029F4020FA11
:100CB00002F217439C404FEA1C4E1FFA8CF5B7FB1B
:100CC000FEF1220C0EFB117742EA074201FB05F010
:100CD00090420AD91CEB020201F1FF3780F01C811F
:100CE000904240F2198102396244121AA4B2B2FB56
:100CF000FEF00EFB102244EA024400FB05F5A5427B
:100D00000AD91CEB040400F1FF3280F00781A542F0
:100D100040F204816444023840EA0140641B00212F
:100D20001EB1DC400023C6E90043BDE8F0878B42DA
:100D300008D9002E00F0ED800021C6E90005084624
:100D4000BDE8F087B3FA83F1002949D1AB4202D361
:100D5000824200F2F880841A65EB030201201746F4
:100D6000002EE2D0C6E90047DFE702B9FFDEB2FAA3
:100D700082F3002B40F090808A1A4FEA1C471FFA3A
:100D80008CFE0121B2FBF7F507FB1520220C42EA8D
:100D900000420EFB05F0904208D91CEB020205F15F
:100DA000FF3802D2904200F2CB804546121AA4B21C
:100DB000B2FBF7F007FB102244EA02440EFB00FEF0
:100DC000A64508D91CEB040400F1FF3202D2A64567
:100DD00000F2BB801046A4EB0E0440EA05409FE7FA
:100DE000C1F120078B4022FA07FC4CEA030C05FAFC
:100DF00001F420FA07F3FD404FEA1C492343B5FBF9
:100E0000F9F81FFA8CFE09FB18551C0C44EA05443E
:100E100008FB0EF5A54202FA01F200FA01F00BD927
:100E20001CEB040408F1FF3A80F08880A54240F2F0
:100E30008580A8F102086444641B9DB2B4FBF9F3F9
:100E400009FB134445EA044403FB0EFEA64508D9FA
:100E50001CEB040403F1FF356CD2A6456AD9023BB2
:100E6000644443EA0843A3FB0295A4EB0E04AC429E
:100E7000C846AE4656D353D056B1B0EB080264EB29
:100E80000E0404FA07F7CA40CC401743C6E90074C1
:100E900018460021BDE8F087C3F1200102FA03FCE7
:100EA00020FA01F225FA01F19D402A434FEA1C473E
:100EB0001FFA8CFEB1FBF7F007FB1015110C41EA8D
:100EC000054100FB0EF58D4204FA03F408D91CEB32
:100ED000010100F1FF382FD28D422DD90238614433
:100EE000491B92B2B1FBF7F507FB151142EA01422B
:100EF00005FB0EF1914208D91CEB020205F1FF3807
:100F000016D2914214D9023D6244521A45EA004178
:100F100038E73146304608E73946E6E61046FBE654
:100F20004845A9D2B9EB020865EB0C0E013BA3E7DB
:100F30004546EAE72B4694E74046D1E7D0467BE7B3
:100F4000023D624432E708460AE76444023842E759
:100F5000704700BF000000002DE9B0438CB000AF27
:100F6000786039605B4B00221A600023FB6204E06A
:100F7000584B1B680133574A1360564B1B681A467F
:100F80007B6813441B782C2BF2D1524B1B68013326
:100F9000504A136004E04F4B1B6801334D4A136005
:100FA0004C4B1B681A467B6813441B782C2BF2D1E0
:100FB000484B1B680133474A136004E0454B1B68EC
:100FC0000133444A1360434B1B681A467B68134441
:100FD0001B782C2BF2D13F4B1B6801333D4A136029
:100FE00004E03C4B1B6801333A4A1360394B1B68E1
:100FF0001A467B6813441B782C2BF2D1354B1B68A7
:101000000133344A136004E0324B1B680133314A28
:101010001360304B1B681A467B6813441B782C2BDB
:10102000F2D12C4B1B6801332A4A136004E0294B90
:101030001B680133274A1360264B1B681A467B68DE
:1010400013441B782C2BF2D1224B1B680133214A0D
:101050001360204B1B681A467B6813441B78312BA6
:101060000FD01C4B1B681A467B6813441B78322B2D
:1010700007D0184B1B681A467B6813441B78362B25
:1010800006D13B680122DA61124B00221A6009E0A6
:101090003B680022DA610123FDE20E4B1B6801333D
:1010A0000C4A13600B4B1B681A467B6813441B7871
:1010B0002C2BF2D1074B1B680133064A136007F152
:1010C0000C030C220021184606F03AFE0023FB62B6
:1010D00016E000BF7C020020AB4B1B681A467B6801
:1010E0001344197807F10C02FB6A13440A461A707C
:1010F000FB6A0133FB62A44B1B680133A24A1360F5
:10110000A14B1B681A467B6813441B782C2BE3D138
:1011100007F10C03184605F0BFFF03469B4A82FB0C
:1011200003121213DB17D21A994B1B68994981FBE2
:1011300003014911DB17CB1A1344974A136007F1D7
:101140000C03184605F0A8FF0346924A82FB0312DF
:101150005211DB17D31A8F4A82FB03125111DA178F
:101160008A1A642101FB02F29A1A894B1968894B89
:1011700083FB01035811CB17C31A642000FB03F350
:10118000CB1A1344854A1360844B1B683B2B09DD43
:10119000824B1B683C3B814A13607F4B1B680133C9
:1011A0007D4A13607C4B1B68002B09DA7A4B1B6865
:1011B0001833794A13607A4B1B68013B784A1360F5
:1011C000754B1B68172B09DD734B1B68183B724A64
:1011D0001360734B1B680133714A13606E4B1A68BE
:1011E0003B681A616D4B1A683B685A6107F10C0342
:1011F000184605F051FF0246664B83FB0213591156
:10120000D317CB1A642101FB03F3D31A3A68936115
:101210005D4B1B6801335C4A136007F10C030C2221
:101220000021184606F08CFD0023FB6213E0564BAC
:101230001B681A467B681344197807F10C02FB6A95
:1012400013440A461A70FB6A0133FB624E4B1B685B
:1012500001334D4A13604C4B1B681A467B6813449C
:101260001B782C2BE3D107F10C031846FFF708F885
:101270000346052B01D802230DE207F10C031846A3
:1012800005F00AFF0346FB840023BB6202E0BB6A51
:101290000133BB6207F10C02BB6A13441B782E2B8F
:1012A000F5D1BB6A0133BB6207F10C031846FEF7A8
:1012B000E7FF0246BB6AD31A3B62BB6A07F10C0226
:1012C0001344184605F0E8FEF861B7F926301846D1
:1012D000FFF730F94FF00002324BFFF7BFFA02463A
:1012E0000B4690469946F869FFF724F904460D46E7
:1012F0003B6A02331846FFF71DF902460B4643ECE2
:10130000112B9FED1F0B08F013FE53EC102B204602
:101310002946FFF7A3FA02460B4640464946FEF728
:10132000BDFF02460B4610461946FFF745FC034633
:10133000BB613B68BA691A60134B1B680133124AE0
:101340001360114B1B681A467B6813441A783B687C
:101350001A710D4B1B6801330B4A13600A4B1B6853
:101360000133094A136007F10C030C2200211846CF
:1013700006F0E6FC0023FB622AE000BFAFF300802A
:1013800000000000000024407C020020AD8BDB68E0
:10139000000000201F85EB51800200208402002005
:1013A00094020020000059408B4B1B681A467B6852
:1013B0001344197807F10C02FB6A13440A461A70A9
:1013C000FB6A0133FB62844B1B680133824A136062
:1013D000814B1B681A467B6813441B782C2BE3D186
:1013E00007F10C03184605F057FE0346FB84002363
:1013F000BB6202E0BB6A0133BB6207F10C02BB6A4D
:1014000013441B782E2BF5D1BB6A0133BB6207F165
:101410000C031846FEF734FF0246BB6AD31A3B6240
:10142000BB6A07F10C021344184605F035FEF8615B
:10143000B7F926301846FFF77DF84FF00002674BEA
:10144000FFF70CFA02460B4690469946F869FFF7FB
:1014500071F804460D463B6A02331846FFF76AF8F6
:1014600002460B4643EC112B9FED590B08F060FD33
:1014700053EC102B20462946FFF7F0F902460B46A5
:1014800040464946FEF70AFF02460B4610461946FB
:10149000FFF792FB0346BB613B68BA699A604E4B0B
:1014A0001B6801334C4A13604B4B1B681A467B6820
:1014B00013441A783B681A73474B1B680133464A3A
:1014C0001360454B1B680133434A1360424B1B6852
:1014D0000133414A1360404B1B6801333E4A13609D
:1014E00007F10C030C220021184606F029FC00230A
:1014F000FB6213E0384B1B681A467B68134419786B
:1015000007F10C02FB6A13440A461A70FB6A0133A6
:10151000FB62314B1B6801332F4A13602E4B1B6853
:101520001A467B6813441B782C2BE3D107F10C037C
:10153000184605F0B1FD02463B689A62264B1B68CF
:101540000133254A136004E0234B1B680133224A10
:101550001360214B1B681A467B6813441B782C2BA5
:10156000F2D11D4B1B6801331B4A136007F10C03BA
:101570000C220021184606F0E3FB0023FB6213E077
:10158000154B1B681A467B681344197807F10C0247
:10159000FB6A13440A461A70FB6A0133FB620E4B66
:1015A0001B6801330C4A13600B4B1B681A467B689F
:1015B00013441B782C2BE3D107F10C03184605F0DC
:1015C0006BFD0346FB840023BB620CE0AFF300809D
:1015D00000000000000024407C0200200000594070
:1015E000BB6A0133BB6207F10C02BB6A13441B7870
:1015F0002E2BF5D1BB6A0133BB6207F10C031846F1
:10160000FEF73EFE0246BB6AD31A3B62BB6A07F195
:101610000C021344184605F03FFDF861B7F9263077
:101620001846FEF787FF04460D46F869FEF782FF6D
:1016300080468946386AFEF77DFF02460B4643EC3A
:10164000112B9FED170B08F073FC53EC102B404649
:101650004946FFF703F902460B4620462946FEF7A6
:101660001DFE02460B4610461946FFF7A5FA034633
:10167000BB613B68BA691A620B4B1B6801330A4AAB
:101680001360094B1B681A467B6813441A783B6841
:1016900083F82420002318463037BD46BDE8B083C8
:1016A00000000000000024407C0200200000000038
:1016B0002DE9B04390B000AF78603960944B0022C0
:1016C0001A600023FB6304E0914B1B680133904ACE
:1016D00013608F4B1B681A467B6813441B782C2BB6
:1016E000F2D18B4B1B680133894A136004E0884BAD
:1016F0001B680133864A1360854B1B681A467B685A
:1017000013441B782C2BF2D1814B1B680133804A88
:1017100013607F4B1B681A467B6813441B78412B70
:101720000DD13B6801225A61794B1B680133784A1D
:101730001360774B1B680133754A136009E03B68FF
:1017400000225A610123D8E1714B1B680133704AB2
:1017500013606F4B1B681A467B6813441B782C2B55
:10176000F2D16B4B1B680133694A136004E0684B8C
:101770001B680133664A1360654B1B681A467B6819
:1017800013441B782C2BF2D1614B1B680133604A48
:10179000136004E05E4B1B6801335D4A13605C4BD1
:1017A0001B681A467B6813441B782C2BF2D1584BCC
:1017B0001B680133564A136004E0554B1B68013324
:1017C000534A1360524B1B681A467B6813441B78BC
:1017D0002C2BF2D14E4B1B6801334D4A1360002372
:1017E000FB6307F108030C220021184606F0A8FA53
:1017F00013E0474B1B681A467B681344197807F1BE
:101800000802FB6B13440A461A70FB6B0133FB633F
:101810003F4B1B6801333E4A13603D4B1B681A4621
:101820007B6813441B782C2BE3D107F108031B784A
:10183000002B56D007F10803184605F02DFC03468F
:101840007B860023BB6302E0BB6B0133BB6307F104
:101850000802BB6B13441B782E2BF5D1BB6B0133F5
:10186000BB6307F108031846FEF70AFD0246BB6B8F
:10187000D31AFB62BB6B07F108021344184605F04C
:101880000BFCB862B7F932301846FEF753FE044637
:101890000D46B86AFEF74EFE80468946F86AFEF7A6
:1018A00049FE02460B4643EC112B9FED170B08F047
:1018B0003FFB53EC102B40464946FEF7CFFF024654
:1018C0000B4620462946FEF7E9FC02460B46104629
:1018D0001946FFF771F903467B623B687A6ADA6062
:1018E00003E03B684FF00002DA60094B1B680133EC
:1018F000074A13600023FB6307F108030C22002151
:10190000184606F01DFA19E000000000000024400F
:101910007C0200207E4B1B681A467B6813441978B2
:1019200007F10802FB6B13440A461A70FB6B013384
:10193000FB63774B1B680133754A1360744B1B685C
:101940001A467B6813441B782C2BE3D107F108035C
:101950001B78002B56D007F10803184605F09CFBB6
:1019600003467B8400237B6302E07B6B01337B6354
:1019700007F108027B6B13441B782E2BF5D17B6B90
:1019800001337B6307F108031846FEF779FC024632
:101990007B6BD31AFB617B6B07F10802134418467B
:1019A00005F07AFBB861B7F922301846FEF7C2FDA0
:1019B00004460D46B869FEF7BDFD80468946F869C4
:1019C000FEF7B8FD02460B4643EC112B9FED4E0B84
:1019D00008F0AEFA53EC102B40464946FEF73EFFA6
:1019E00002460B4620462946FEF758FC02460B46A7
:1019F00010461946FFF7E0F803467B613B687A69B9
:101A00001A6103E03B684FF000021A61404B1B680B
:101A100001333F4A13600023FB6307F108030C22E4
:101A20000021184606F08CF913E0394B1B681A4662
:101A30007B681344197807F10802FB6B13440A46CC
:101A40001A70FB6B0133FB63314B1B680133304A67
:101A500013602F4B1B681A467B6813441B782C2B92
:101A6000E3D107F10803184605F016FB0346294A9F
:101A700082FB03121213DB17D31A274A136007F1F4
:101A80000803184605F008FB0346244A82FB0312AC
:101A90005211DB17D21A214B83FB02135911D317B2
:101AA000CB1A642101FB03F3D31A1D4A136007F11B
:101AB0000803184605F0F0FA0246184B83FB0213A0
:101AC0005911D317CB1A642101FB03F3D31A154A1A
:101AD0001360114B1A68144B1B6813440E4A1360B1
:101AE0000D4B1A683B681A600D4B1A683B685A60C8
:101AF0000C4B1A683B689A60002318464037BD4675
:101B0000BDE8B083AFF30080000000000000244077
:101B10007C020020AD8BDB68880200201F85EB5122
:101B20008C020020900200209402002080B400AFBC
:101B30000D4B0E4A1A600E4B0E4A1A600E4B1B6874
:101B40005A690D4B1B6842F001025A610A4B1B682F
:101B5000DA68094B1B6842F02002DA6000BFBD461C
:101B60005DF8047B704700BFAC0600209C0200209B
:101B7000B0060020A40400209807002080B485B09F
:101B800000AF03463960FB713B68D3F80032013384
:101B9000C3F30803FB603B68D3F80422FB689A4256
:101BA00009D03B68D3F800323A68F979D154FA6821
:101BB0003B68C3F8002200BF1437BD465DF8047BC4
:101BC0007047000080B483B000AF134B1B68D3F89C
:101BD0000022114B1B68D3F804329A4202D14FF015
:101BE000FF3313E00C4B1A680B4B1B68D3F804321D
:101BF000D35CFB71084B1B68D3F804325A1C064BAC
:101C00001B68C2F30802C3F80422FB7918460C379C
:101C1000BD465DF8047B7047AC06002080B485B0FB
:101C200000AF78607B68002B25DB164B1B68D3F870
:101C300000320133C3F30803FB6000BF114B1B6884
:101C4000D3F80422FB689A42F8D00E4B1A680D4B69
:101C50001B68D3F800327968C9B2D154094B1B68AC
:101C6000FA68C3F80022084B1B68DA68064B1B6849
:101C700042F08002DA6000BF1437BD465DF8047B95
:101C8000704700BFB00600209807002080B400AF66
:101C90000A4B1B68D3F800329AB2084B1B68D3F882
:101CA00004329BB2D31A9BB203F500739BB2C3F309
:101CB00008031846BD465DF8047B7047AC0600205B
:101CC00080B582B000AF786006E07B685A1C7A600D
:101CD0001B781846FFF7A2FF7B681B78002BF4D116
:101CE00000BF00BF0837BD4680BD000080B400AF14
:101CF0000C4B1B68D3F800220A4B1B68D3F8043244
:101D00009A4202D14FF0FF3306E0064B1A68054BAA
:101D10001B68D3F80432D35C1846BD465DF8047BDB
:101D2000704700BFAC06002080B586B000AF786079
:101D3000396000237B617868FEF7A2FA0346FB60F6
:101D400000233B611EE0364B1968354B1B68D3F806
:101D500004223B69386803448A5C1A70304B1B6864
:101D6000D3F804325A1C2E4B1B68C2F30802C3F886
:101D700004223B6901333B6100BFFFF787FF034645
:101D8000002BFAD0FFF7B2FF01467B697A68134453
:101D90001B789942D7D127E07B6901337B61FFF73C
:101DA00011FF01463B695A1C3A611A463B681344CD
:101DB000CAB21A707A69FB689A4201D101232AE0FB
:101DC000184B4FF4FA721A8000BFFFF75FFF03460B
:101DD000002B03D1134B1B88002BF6D1114B1B8812
:101DE000002B01D1002316E0FFF780FF01467B693D
:101DF0007A6813441B789942CED07A69FB689A427C
:101E000002D000237B619DE77A69FB689A4201D189
:101E1000012300E0002318461837BD4680BD00BFEF
:101E2000AC0600209802002080B584B000AF786036
:101E30000023FB607868FEF723FA0346BB603C4B47
:101E40004FF4FA721A8000BFFFF720FF0346002B01
:101E500003D1374B1B88002BF6D1354B1B88002B49
:101E600019D1002360E0334B1B68D3F80422314BB7
:101E70001B68D3F800329A420BD02E4B1B68D3F864
:101E800004325A1C2B4B1B68C2F30802C3F804220D
:101E900001E0002348E0FFF729FF0146FB687A686C
:101EA00013441B789942DED127E0FB680133FB60C5
:101EB000204B1B68D3F804325A1C1E4B1B68C2F31C
:101EC0000802C3F80422FA68BB689A4201D10123D0
:101ED0002AE0174B4FF4FA721A8000BFFFF7D6FEC4
:101EE0000346002B03D1124B1B88002BF6D1104B5D
:101EF0001B88002B01D1002316E0FFF7F7FE0146F7
:101F0000FB687A6813441B789942CED0FA68BB68A4
:101F10009A4202D00023FB6091E7FA68BB689A42BC
:101F200001D1012300E0002318461037BD4680BDD3
:101F300098020020AC06002080B586B000AF786023
:101F40007B681B681B687B617B681B68DB683B6187
:101F50007B6903F02003002B13D03B6903F02003BF
:101F6000002B0ED07B681B681B687B681B685B6856
:101F7000FB731E4B1A68FB7B11461846FFF7FEFDEC
:101F800031E07B6903F08003002B2CD03B6903F028
:101F90008003002B27D0164BD3F80022144BD3F824
:101FA00004329A4208D17B681B68DA687B681B6838
:101FB00022F08002DA6015E00D4BD3F804320C4AAF
:101FC000D35CBB730A4BD3F804320133C3F3080369
:101FD000074AC2F804327B681B681B687B681B6871
:101FE000BA7B5A6000BF1837BD4680BDAC060020E2
:101FF000A404002080B500AF0648FFF761FEC820AA
:1020000000F080FE0448FFF75BFEC82000F07AFE77
:1020100000BF80BD040000201400002080B500AF88
:102020000948FFF701FF0346012B05D1074B41F299
:1020300088321A60012304E0044B41F288321A60AE
:102040000023184680BD00BF54AE000824000020C5
:102050000FB480B582B000AF07F1100C8CE80F0010
:1020600007F15C033B603B68BA6D4FF480710C482C
:1020700005F058FE0A48FEF703F903467B607B68CB
:102080009AB24FF0FF33064907F1100004F052F8FE
:1020900000BF0837BD46BDE8804004B0704700BFB0
:1020A000C8090020F0B591B010AF00F0B9FD00F004
:1020B00057F800F08FF900F039F900F061F900F0FD
:1020C000B9F800F0E5F8FFF731FDFFF793FFFFF7F0
:1020D000A5FF0346002B05D01A4A1B491B4805F0F3
:1020E00093FD04E01A4A1849184805F08DFD00F0E8
:1020F000D1F9184E184B0E936D4606F110040FCC13
:102100000FC50FCC0FC50FCC0FC594E8030085E8B1
:10211000030096E80F00FFF79BFF0E4E0F4B0E9348
:102120006D4606F110040FCC0FC50FCC0FC50FCCB8
:102130000FC594E8030085E8030096E80F00FFF759
:1021400087FFD4E758AE000860AE0008640900209D
:1021500068AE0008500700202C080020600800200E
:1021600080B594B000AF07F120033022002118465B
:1021700005F0E6FD07F10C0300221A605A609A6030
:10218000DA601A610023BB60284B1B6C274A43F0BE
:1021900080531364254B1B6C03F08053BB60BB68FA
:1021A00000237B60224B1B6823F44043204A43F406
:1021B000004313601E4B1B6803F440437B607B6845
:1021C00001233B624FF480337B620223BB634FF4F5
:1021D0008003FB6319233B6490237B640223BB646D
:1021E0000423FB6407F12003184602F025FF034691
:1021F000002B01D000F08EFA0F23FB6002233B611D
:1022000000237B614FF48053BB610023FB6107F126
:102210000C030221184603F087F90346002B01D076
:1022200000F078FA00BF5037BD4680BD003802404C
:102230000070004080B500AF124B134A1A60114B7A
:10224000124A5A600F4B00229A600E4B0022DA604D
:102250000C4B4FF480421A610A4B00225A61094B21
:1022600000229A61074B0022DA61064B00221A62B3
:10227000044801F0BBF80346002B01D000F04AFAF5
:1022800000BF80BDB406002000540040A0860100BD
:1022900080B586B000AF07F1080300221A605A60CB
:1022A0009A60DA603B4600221A605A601E4B4FF07B
:1022B00080421A601C4B41F61F425A601A4B0022A2
:1022C0009A60194B42F20F72DA60174B00221A61C2
:1022D000154B80229A61144803F006FB0346002B3D
:1022E00001D000F017FA4FF48053BB6007F10803E8
:1022F00019460D4803F037FC0346002B01D000F0CF
:1023000009FA00233B6000237B603B4619460648E0
:1023100003F03EFE0346002B01D000F0FBF900BFA6
:102320001837BD4680BD00BF0807002080B500AF4C
:10233000114B124A1A60104B4FF4E1325A600E4BA7
:1023400000229A600C4B0022DA600B4B00221A61CB
:10235000094B0C225A61084B00229A61064B00225D
:10236000DA61054803F096FE0346002B01D000F029
:10237000D1F900BF80BD00BF500700200010014010
:1023800080B500AF114B124A1A60104B4FF4E13286
:102390005A600E4B00229A600C4B0022DA600B4B05
:1023A00000221A61094B0C225A61084B00229A61E3
:1023B000064B0022DA61054803F06CFE0346002B51
:1023C00001D000F0A7F900BF80BD00BF9807002032
:1023D0000044004080B58AB000AF07F1140300222A
:1023E0001A605A609A60DA601A6100233B61274BD9
:1023F0001B6B264A43F004031363244B1B6B03F04F
:1024000004033B613B690023FB60204B1B6B1F4AAD
:1024100043F0800313631D4B1B6B03F08003FB60D1
:10242000FB680023BB60194B1B6B184A43F0010388
:102430001363164B1B6B03F00103BB60BB680023E7
:102440007B60124B1B6B114A43F0020313630F4B6B
:102450001B6B03F002037B607B6800224FF400518A
:102460000B4800F0A9FF4FF400537B610123BB61CF
:102470000023FB6100233B6207F114031946044863
:1024800000F016FE00BF2837BD4680BD0038024070
:1024900000080240F0B591B010AF6D48FFF7C4FCE2
:1024A0000346012B15D16B4B41F288321A606A4901
:1024B0006A48FFF739FC6A496748FEF74DFD034655
:1024C000002B03D1674B02221A6002E0654B012208
:1024D0001A606548FFF7A8FC0346012B15D15D4B38
:1024E00041F288321A6061495C48FFF71DFC60497F
:1024F0005E48FFF7DDF80346002B03D15D4B022257
:102500001A6002E05B4B01221A60564B1B68022BDB
:102510000CBF01230023DAB2564B1B68022B0CBF01
:1025200001230023DBB21343DBB2002B3ED0322267
:102530000021514805F004FC494B1C69484B5D697A
:10254000474B9B69464AD26A4549096B4448406BF0
:1025500003900291019200932B4622464749464838
:1025600005F052FB32220021454805F0E9FB3C4BC7
:102570001B681846FDF7F0FF04460D46384B1B79E3
:102580001E46374B9B681846FDF7E6FF02460B4692
:102590003349097B0491CDE90223009622462B465C
:1025A0003849374805F030FB01234CE02D4B1B68C0
:1025B000012B0CBF01230023DAB22E4B1B68012B29
:1025C0000CBF01230023DBB21343DBB2002B15D079
:1025D0002D4E2E4B0E936D4606F110040FCC0FC5F9
:1025E0000FCC0FC50FCC0FC594E8030085E803009E
:1025F00096E80F00FFF72CFD002324E0154B1B6825
:10260000002B20DC134B41F288321A60194B002258
:102610001A60184B1B68134A13601B4E1C4B0E9319
:102620006D4606F110040FCC0FC50FCC0FC50FCCB3
:102630000FC594E8030085E8030096E80F00FFF754
:1026400007FD0023FFE718460437BD46F0BD00BF75
:1026500074AE0008240000209C08002078AE00081A
:10266000E0070020240800207CAE000800090020BC
:102670000C080020280800206008002080AE000818
:102680002C080020A0AE00085007002028000020E1
:102690005000002080B582B000AF7860642304222F
:1026A0000349044803F046FD00BF0837BD4680BD1E
:1026B000B4AE00085007002080B582B000AF78604B
:1026C000786801F032FA0346042B01D000F022F8BA
:1026D00000BF0837BD4680BD80B483B000AF7860CE
:1026E0000A4B1B683B2B05DC084B1B680133074A70
:1026F000136005E0054B00221A60054B01221A60A9
:1027000000BF0C37BD465DF8047B7047940800207D
:102710009808002080B400AF72B600BFFEE700004A
:1027200080B483B000AF00237B60104B5B6C0F4A1A
:1027300043F4804353640D4B5B6C03F480437B6034
:102740007B6800233B60094B1B6C084A43F08053B5
:102750001364064B1B6C03F080533B603B6800BF67
:102760000C37BD465DF8047B704700BF003802405F
:1027700080B58AB000AF786007F1140300221A60B8
:102780005A609A60DA601A617B681B68214A93423A
:102790003BD100233B61204B1B6B1F4A43F00203DC
:1027A00013631D4B1B6B03F002033B613B69C023AA
:1027B0007B611223BB610023FB6103233B62042383
:1027C0007B6207F114031946144800F071FC0023E2
:1027D000FB60114B1B6C104A43F4001313640E4B47
:1027E0001B6C03F40013FB60FB68002200211F2018
:1027F00000F087FB1F2000F0A0FB0022002120201A
:1028000000F07FFB202000F098FB00BF2837BD467A
:1028100080BD00BF00540040003802400004024068
:1028200080B584B000AF78607B681B68B3F1804FDF
:1028300015D10023FB600C4B1B6C0B4A43F00103CA
:102840001364094B1B6C03F00103FB60FB6800225F
:1028500000211C2000F055FB1C2000F06EFB00BF87
:102860001037BD4680BD00BF0038024080B58CB037
:1028700000AF786007F11C0300221A605A609A606A
:10288000DA601A617B681B68364A93422DD10023B7
:10289000BB61354B5B6C344A43F010035364324BDD
:1028A0005B6C03F01003BB61BB6900237B612E4BA3
:1028B0001B6B2D4A43F0010313632B4B1B6B03F07F
:1028C00001037B617B694FF4C063FB6102233B62C0
:1028D00000237B620323BB620723FB6207F11C0317
:1028E0001946224800F0E4FB38E07B681B68204A68
:1028F000934233D100233B611B4B1B6C1A4A43F4B8
:1029000000331364184B1B6C03F400333B613B69C9
:102910000023FB60144B1B6B134A43F0010313634A
:10292000114B1B6B03F00103FB60FB680C23FB6185
:1029300002233B6200237B620323BB620723FB620B
:1029400007F11C031946094800F0B2FB00220021E0
:10295000262000F0D6FA262000F0EFFA00BF30372C
:10296000BD4680BD0010014000380240000002401A
:102970000044004080B400AFFEE780B400AFFEE743
:1029800080B400AFFEE780B400AFFEE780B400AFD4
:10299000FEE780B400AF00BFBD465DF8047B704722
:1029A00080B400AF00BFBD465DF8047B704780B4C3
:1029B00000AF00BFBD465DF8047B704780B500AF37
:1029C00000F080F900BF80BD80B500AF024802F082
:1029D000DAFF00BF80BD00BF0807002080B500AF50
:1029E000024800F05CFE00BF80BD00BFB4060020BE
:1029F00080B500AF024800F0A5FF00BF80BD00BF5A
:102A0000B406002080B500AF0348FFF795FA0248EE
:102A100003F01CFC00BF80BD9807002080B400AF0D
:102A200001231846BD465DF8047B704780B582B02F
:102A300000AF7860396005F0D5F9034616221A60B8
:102A40004FF0FF3318460837BD4680BD80B582B0D1
:102A500000AF78604FF0FF317868FFF7E7FFFEE7DF
:102A600080B586B000AFF860B9607A6000237B6102
:102A70000AE0AFF300800146BB685A1CBA60CAB2D4
:102A80001A707B6901337B617A697B689A42F0DB5B
:102A90007B6818461837BD4680BD80B586B000AF4C
:102AA000F860B9607A6000237B6109E0BB685A1C5A
:102AB000BA601B781846AFF300807B6901337B61F5
:102AC0007A697B689A42F1DB7B6818461837BD4605
:102AD00080BD80B483B000AF78604FF0FF331846FC
:102AE0000C37BD465DF8047B704780B483B000AFFF
:102AF000786039603B684FF400525A6000231846F2
:102B00000C37BD465DF8047B704780B483B000AFDE
:102B10007860012318460C37BD465DF8047B70478A
:102B200080B485B000AFF860B9607A6000231846C1
:102B30001437BD465DF8047B7047000080B586B051
:102B400000AF7860144A154BD31A7B617B693B61F7
:102B5000134B1B68002B02D1114B124A1A60104B09
:102B60001A687B6813443A699A4207D205F03AF929
:102B700003460C221A604FF0FF3309E0084B1B6834
:102B8000FB60074B1A687B681344054A1360FB68B7
:102B900018461837BD4680BD000001200004000023
:102BA000C80A0020200C002080B400AF064BD3F8E8
:102BB0008830054A43F47003C2F8883000BFBD4630
:102BC0005DF8047B704700BF00ED00E0DFF834D013
:102BD000FFF7EAFF0C480D490D4A002302E0D458E4
:102BE000C4500433C4188C42F9D30A4A0A4C002357
:102BF00001E013600432A242FBD305F0F9F8FFF7BD
:102C000051FA7047000001200000002060020020FF
:102C100088B20008600200201C0C0020FEE70000C3
:102C200080B500AF0E4B1B680D4A43F40073136070
:102C30000B4B1B680A4A43F480631360084B1B6804
:102C4000074A43F480731360032000F04FF90F200C
:102C500000F008F8FFF764FD0023184680BD00BFB0
:102C6000003C024080B582B000AF7860124B1A6819
:102C7000124B1B7819464FF47A73B3FBF1F3B2FB96
:102C8000F3F3184600F067F90346002B01D0012347
:102C90000EE07B680F2B0AD8002279684FF0FF30D6
:102CA00000F02FF9064A7B681360002300E001233F
:102CB00018460837BD4680BD7800002080000020FF
:102CC0007C00002080B400AF064B1B781A46064BF0
:102CD0001B681344044A136000BFBD465DF8047BC3
:102CE000704700BF80000020CC0A002080B400AFF5
:102CF000034B1B681846BD465DF8047B704700BF58
:102D0000CC0A002080B584B000AF7860FFF7EEFFFA
:102D1000B8607B68FB60FB68B3F1FF3F05D00A4BEE
:102D20001B781A46FB681344FB6000BFFFF7DEFF09
:102D30000246BB68D31AFA689A42F7D800BF00BFB0
:102D40001037BD4680BD00BF8000002080B485B034
:102D500000AF78607B6803F00703FB600C4BDB6817
:102D6000BB60BA684FF6FF031340BB60FB681A02F2
:102D7000BB68134343F0BF6343F40033BB60044AB2
:102D8000BB68D36000BF1437BD465DF8047B704755
:102D900000ED00E080B400AF044BDB681B0A03F0D9
:102DA00007031846BD465DF8047B704700ED00E060
:102DB00080B483B000AF0346FB7197F90730002B56
:102DC0000BDBFB7903F01F02074997F907305B091A
:102DD000012000FA02F241F8232000BF0C37BD4663
:102DE0005DF8047B704700BF00E100E080B483B071
:102DF00000AF03463960FB7197F90730002B0ADBFF
:102E00003B68DAB20C4997F907301201D2B20B4491
:102E100083F800230AE03B68DAB20849FB7903F043
:102E20000F03043B1201D2B20B441A7600BF0C37D9
:102E3000BD465DF8047B704700E100E000ED00E076
:102E400080B489B000AFF860B9607A60FB6803F0C5
:102E50000703FB61FB69C3F10703042B28BF0423AD
:102E6000BB61FB690433062B02D9FB69033B00E01D
:102E700000237B614FF0FF32BB6902FA03F3DA43B0
:102E8000BB681A407B699A404FF0FF317B6901FAB9
:102E900003F3D9437B680B40134318462437BD46E0
:102EA0005DF8047B7047000080B582B000AF7860A9
:102EB0007B68013BB3F1807F01D301230FE00A4A15
:102EC0007B68013B53600F214FF0FF30FFF78EFF0F
:102ED000054B00229A60044B07221A600023184613
:102EE0000837BD4680BD00BF10E000E080B582B06D
:102EF00000AF78607868FFF729FF00BF0837BD464C
:102F000080BD80B586B000AF0346B9607A60FB73C0
:102F100000237B61FFF73EFF78617A68B9687869C2
:102F2000FFF78EFF024697F90F3011461846FFF75C
:102F30005DFF00BF1837BD4680BD80B582B000AFD1
:102F40000346FB7197F907301846FFF731FF00BFC2
:102F50000837BD4680BD80B582B000AF7860786824
:102F6000FFF7A2FF034618460837BD4680BD80B56F
:102F700084B000AF78607B689B6DFB60FFF7B6FEA6
:102F8000B8607B6893F83530DBB2022B08D07B68E1
:102F900080225A657B68002283F83420012352E0A6
:102FA0007B681B681A687B681B6822F016021A602F
:102FB0007B681B685A697B681B6822F080025A6133
:102FC0007B681B6C002B03D17B689B6C002B07D0AC
:102FD0007B681B681A687B681B6822F008021A600D
:102FE0007B681B681A687B681B6822F001021A6004
:102FF00013E0FFF77BFE0246BB68D31A052B0CD902
:103000007B6820225A657B68032283F835207B6821
:10301000002283F83420032315E07B681B681B68BB
:1030200003F00103002BE4D17B68DB6D3F229A4063
:10303000FB689A607B68012283F835207B68002258
:1030400083F83420002318461037BD4680BD80B475
:1030500083B000AF78607B6893F83530DBB2022B29
:1030600004D07B6880225A6501230CE07B6805222E
:1030700083F835207B681B681A687B681B6822F020
:1030800001021A60002318460C37BD465DF8047B28
:10309000704780B483B000AF78607B6893F83530B8
:1030A000DBB218460C37BD465DF8047B7047000064
:1030B00080B489B000AF7860396000237B61002361
:1030C0003B610023BB610023FB6159E10122FB69E5
:1030D00002FA03F37B613B681B687A6913403B612A
:1030E0003A697B699A4240F048813B685B6803F02B
:1030F0000303012B05D03B685B6803F00303022B3D
:1031000030D17B689B68BB61FB695B00032202FADC
:1031100003F3DB43BA691340BB613B68DA68FB69C0
:103120005B0002FA03F3BA691343BB617B68BA69B7
:103130009A607B685B68BB610122FB6902FA03F35A
:10314000DB43BA691340BB613B685B681B0903F052
:103150000102FB6902FA03F3BA691343BB617B689E
:10316000BA695A603B685B6803F00303032B17D00E
:103170007B68DB68BB61FB695B00032202FA03F337
:10318000DB43BA691340BB613B689A68FB695B002B
:1031900002FA03F3BA691343BB617B68BA69DA6068
:1031A0003B685B6803F00303022B23D1FB69DA0859
:1031B0007B68083253F82230BB61FB6903F00703D8
:1031C0009B000F2202FA03F3DB43BA691340BB6191
:1031D0003B681A69FB6903F007039B0002FA03F3DB
:1031E000BA691343BB61FB69DA087B680832B969C5
:1031F00043F822107B681B68BB61FB695B000322FC
:1032000002FA03F3DB43BA691340BB613B685B68B6
:1032100003F00302FB695B0002FA03F3BA6913438C
:10322000BB617B68BA691A603B685B6803F4403332
:10323000002B00F0A2800023FB60574B5B6C564ACA
:1032400043F480435364544B5B6C03F48043FB6052
:10325000FB68524AFB699B08023352F82330BB617A
:10326000FB6903F003039B000F2202FA03F3DB4325
:10327000BA691340BB617B68494A934219D07B68A5
:10328000484A934213D07B68474A93420DD07B68EB
:10329000464A934207D07B68454A934201D10423B2
:1032A00008E0072306E0032304E0022302E00123F1
:1032B00000E00023FA6902F0030292009340BA6929
:1032C0001343BB613549FB699B080233BA6941F876
:1032D0002320384B9B68BB613B69DB43BA691340D1
:1032E000BB613B685B6803F48013002B03D0BA69B1
:1032F0003B691343BB612F4ABB6993602D4BDB686D
:10330000BB613B69DB43BA691340BB613B685B68E7
:1033100003F40013002B03D0BA693B691343BB616C
:10332000244ABB69D360234B5B68BB613B69DB43C9
:10333000BA691340BB613B685B6803F40033002B40
:1033400003D0BA693B691343BB611A4ABB69536036
:10335000184B1B68BB613B69DB43BA691340BB6117
:103360003B685B6803F48033002B03D0BA693B6988
:103370001343BB610F4ABB691360FB690133FB61F7
:10338000FB690F2B7FF6A2AE00BF00BF2437BD46FE
:103390005DF8047B704700BF0038024000380140F0
:1033A000000002400004024000080240000C0240FD
:1033B00000100240003C014080B483B000AF786050
:1033C0000B467B8013467B707B78002B03D07A887A
:1033D0007B689A6103E07B881A047B689A6100BF6E
:1033E0000C37BD465DF8047B7047000080B584B0A3
:1033F00000AF78607B68002B01D101232BE17B6853
:1034000093F83D30DBB2002B06D17B68002283F8B5
:103410003C207868FFF7ACF97B68242283F83D20D4
:103420007B681B681A687B681B6822F001021A60BF
:103430007B681B681A687B681B6842F400421A604C
:103440007B681B681A687B681B6822F400421A605C
:1034500002F022FAF8607B685B68814A934207D8E1
:10346000FB68804A934294BF01230023DBB206E04D
:10347000FB687D4A934294BF01230023DBB2002BFB
:1034800001D00123E7E0FB68784AA2FB03239B0CF1
:10349000BB607B681B685B6823F03F017B681B682F
:1034A000BA680A435A607B681B681B6A23F03F01B5
:1034B0007B685B686A4A934202D8BB68013309E0C3
:1034C000BB684FF4967202FB03F3694AA2FB032325
:1034D0009B0901337A6812680B4313627B681B688F
:1034E000DB6923F44F4222F0FF027B685B685C4992
:1034F0008B4219D8FB68591E7B685B685B00B1FB87
:10350000F3F3591C40F6FC730B40002B0AD0FB6808
:10351000591E7B685B685B00B1FBF3F30133C3F3B7
:103520000B0351E004234FE07B689B68002B11D113
:10353000FB68581E7B6859680B465B000B44B0FB68
:10354000F3F30133C3F30B03002B0CBF0123002360
:10355000DBB212E0FB68581E7B6859680B469B0083
:103560000B4499000B44B0FBF3F30133C3F30B039B
:10357000002B0CBF01230023DBB2002B01D0012361
:1035800022E07B689B68002B0ED1FB68581E7B688D
:1035900059680B465B000B44B0FBF3F30133C3F3F4
:1035A0000B0343F400430FE0FB68581E7B68596827
:1035B0000B469B000B4499000B44B0FBF3F3013323
:1035C000C3F30B0343F44043796809681343CB61A9
:1035D0007B681B681B6823F0C0017B68DA697B6825
:1035E0001B6A1A437B681B680A431A607B681B6866
:1035F0009B6823F4034323F0FF037A6811697A6818
:10360000D26811437A6812680B4393607B681B6829
:10361000DB6823F0FF017B685A697B689B691A436A
:103620007B681B680A43DA607B681B681A687B68E2
:103630001B6842F001021A607B6800221A647B68F2
:10364000202283F83D207B6800221A637B680022D9
:1036500083F83E20002318461037BD4680BD00BFCA
:10366000A08601007F841E00FF083D0083DE1B430F
:10367000D34D621080B483B000AF78607B681B6864
:103680005B6903F08003802B03D17B681B680022F9
:103690001A6100BF0C37BD465DF8047B704780B5EA
:1036A00088B000AF78600023BB617B681B685B68F3
:1036B0007B617B68DB6A3B617B6893F83E30FB7320
:1036C0007B6893F83D30BB73FB7B102B03D0FB7BF7
:1036D000402B40F0B1807B681B689B69BB617B68B5
:1036E0001B685B69FB61FB6903F00103002B0DD1D3
:1036F0003B69B3F52A0F03D03B69B3F12A4F01D1DF
:10370000012300E00023012B00F01481FB6903F08A
:103710000103002B0BD07B6903F40073002B06D050
:10372000786801F06DFC786800F072FD83E0FB6959
:1037300003F00803002B08D07B6903F40073002B0F
:1037400003D0786800F0EAFD75E0FB6903F002033E
:10375000002B08D07B6903F40073002B03D078683A
:1037600000F006FE67E0BB6903F00403002B36D0CF
:103770007B681B685B6803F40063B3F5006F00F0BF
:10378000DB80FB6903F08003002B0DD07B6903F421
:103790008063002B08D0FB6903F00403002B03D1E6
:1037A000786800F0CEF946E0FB6903F00403002BD3
:1037B00000F0C2807B6903F40073002B00F0BC8032
:1037C000BB7B212B03D1786800F057FAB4E0FB7B78
:1037D000402B40F0B180786800F0C5FAACE07B681F
:1037E0001B685B6803F40063B3F5006F00F0A4800E
:1037F000FB6903F04003002B0DD07B6903F4806369
:10380000002B08D0FB6903F00403002B03D1786878
:1038100000F041FB0FE0FB6903F00403002B00F014
:103820008B807B6903F40073002B00F0858078683F
:1038300000F0F9FB80E07FE07B681B6C002B04D07C
:103840007B681B685B69FB6107E07B681B689B69A1
:10385000BB617B681B685B69FB61FB6903F002036A
:10386000002B11D07B6903F40073002B0CD07B6814
:103870001B6C002B03D07B681B689B69BB61B9691B
:10388000786800F0C4FF5AE0FB6903F01003002BD6
:1038900008D07B6903F40073002B03D0786800F034
:1038A000FFFF4CE0BB7B212B02D0BB7B292B20D11F
:1038B000FB6903F08003002B0DD07B6903F4806368
:1038C000002B08D0FB6903F00403002B03D17868B8
:1038D00000F0DFFE32E0FB6903F00403002B2DD083
:1038E0007B6903F40073002B28D0786800F00EFF8A
:1038F00024E0FB6903F04003002B0DD07B6903F447
:103900008063002B08D0FB6903F00403002B03D174
:10391000786800F01CFF12E0FB6903F00403002B41
:103920000DD07B6903F40073002B08D0786800F099
:103930004CFF04E000BF02E000BF00E000BF203702
:10394000BD4680BD80B58AB000AF78607B681B68DB
:103950005B693B627B681B685B68FB6100237B6281
:103960007B6893F83E30FB763B6A03F48073002B50
:103970000DD0FB6903F48073002B08D07B6A43F001
:1039800001037B627B681B686FF480725A613B6A3B
:1039900003F40073002B0DD0FB6903F48073002B3C
:1039A00008D07B6A43F002037B627B681B686FF47C
:1039B00000725A613B6A03F48063002B3ED0FB69BE
:1039C00003F48073002B39D0FB7EBB767B685B8D64
:1039D0009BB27B617B6893F83D30FB747B681B6B0B
:1039E000FB60BB7E202B12D17B69002B0FD1FB7CAF
:1039F000212B08D0FB7C292B05D0FB7C282B06D162
:103A0000FB68212B03D1786801F07AF816E07B6817
:103A10001B686FF480625A617B6A43F004037B6227
:103A2000FB7E102B02D0FB7E402B07D17B681B68EE
:103A30001A687B681B6842F400721A603B6A03F4E0
:103A40000063002B0DD0FB6903F48073002B08D0BA
:103A50007B6A43F008037B627B681B686FF400623B
:103A60005A617B6A002B08D07B681A6C7B6A1A4308
:103A70007B681A64786801F0B7F800BF2837BD4644
:103A800080BD80B483B000AF786000BF0C37BD4606
:103A90005DF8047B704780B483B000AF786000BFEE
:103AA0000C37BD465DF8047B704780B483B000AF2F
:103AB000786000BF0C37BD465DF8047B704780B46A
:103AC00083B000AF78600B46FB7013463B8000BFAD
:103AD0000C37BD465DF8047B704780B483B000AFFF
:103AE000786000BF0C37BD465DF8047B704780B43A
:103AF00083B000AF786000BF0C37BD465DF8047B33
:103B0000704780B483B000AF786000BF0C37BD460B
:103B10005DF8047B704780B483B000AF786000BF6D
:103B20000C37BD465DF8047B704780B483B000AFAE
:103B300078607B681B6C18460C37BD465DF8047BCB
:103B4000704780B584B000AF78607B6893F83D30F3
:103B5000FB737B6893F83E30BB737B68DB6ABB60AA
:103B60007B681B8D002B50D1FB7B212B4DD1BB687B
:103B7000082B1DD0BB68202B1AD0BB6813F5803FE3
:103B800016D07B681B685A687B681B6822F4E06269
:103B90005A607B6811221A637B68002283F83E20FA
:103BA0007B68202283F83D207868FFF76AFF60E099
:103BB0007B681B685A687B681B6822F4E0625A6065
:103BC0007B681B681A687B681B6842F400721A6085
:103BD0007B6800221A637B68202283F83D207B6883
:103BE00093F83E30DBB2402B07D17B68002283F88C
:103BF0003E207868FFF77BFF3BE07B68002283F87C
:103C00003E207868FFF73DFF33E0FB7B212B05D09A
:103C1000BB7B402B2DD1FB7B222B2AD17B685B8D7C
:103C20009BB2002B08D17B681B685A687B681B68B5
:103C300022F480625A601CE07B6893F83E30DBB26D
:103C4000402B03D1786800F08EF812E07B685B6A45
:103C50001A787B681B681A617B685B6A5A1C7B68F0
:103C60005A627B685B8D9BB2013B9AB27B685A8536
:103C7000FFE700BF1037BD4680BD80B584B000AF00
:103C800078607B68DB6AFB607B6893F83D30DBB271
:103C9000212B64D17B685B8D9BB2002B12D07B689B
:103CA0005B6A1A787B681B681A617B685B6A5A1CBE
:103CB0007B685A627B685B8D9BB2013B9AB27B68E2
:103CC0005A854CE0FB68082B1DD0FB68202B1AD0CE
:103CD000FB6813F5803F16D07B681B685A687B68C9
:103CE0001B6822F4E0625A607B6811221A637B68C9
:103CF000002283F83E207B68202283F83D207868EC
:103D0000FFF7BFFE2BE07B681B685A687B681B6867
:103D100022F4E0625A607B681B681A687B681B6843
:103D200042F400721A607B6800221A637B682022CA
:103D300083F83D207B6893F83E30DBB2402B07D1FF
:103D40007B68002283F83E207868FFF7D0FE06E00B
:103D50007B68002283F83E207868FFF792FE00BF60
:103D60001037BD4680BD80B584B000AF78607B68F9
:103D700093F83D30FB737B681B6D002B1DD17B6876
:103D8000DB6C012B0BD17B689B6CDAB27B681B6808
:103D90001A617B681B6D9A1C7B681A6577E07B68EB
:103DA0009B6C9BB21B12DAB27B681B681A617B6842
:103DB0001B6D5A1C7B681A6569E07B681B6D012BC3
:103DC0000BD17B689B6CDAB27B681B681A617B68DD
:103DD0001B6D5A1C7B681A6559E07B681B6D022BB2
:103DE00052D1FB7B222B0DD17B681B681A687B6844
:103DF0001B6842F480721A607B681B6D5A1C7B68DA
:103E00001A6544E07B685B8D9BB2002B15D0FB7B71
:103E1000212B12D17B685B6A1A787B681B681A6158
:103E20007B685B6A5A1C7B685A627B685B8D9BB2BD
:103E3000013B9AB27B685A8529E07B685B8D9BB217
:103E4000002B24D1FB7B212B21D17B681B685A6876
:103E50007B681B6822F4E0625A607B681B681A6802
:103E60007B681B6842F400721A607B6800221A6348
:103E70007B68202283F83D207B68002283F83E2067
:103E80007868FFF734FE02E07868FFF7F3FB00BFC5
:103E90001037BD4680BD80B584B000AF78607B68C8
:103EA00093F83D30DBB2222B40F0B9807B68DB6AAF
:103EB000FB607B685B8D9BB2BB60BB68032B21D929
:103EC0007B681B681A697B685B6AD2B21A707B6870
:103ED0005B6A5A1C7B685A627B685B8D9BB2013BB4
:103EE0009AB27B685A857B685B8D9BB2032B40F04E
:103EF00096807B681B685A687B681B6822F4806226
:103F00005A608CE07B68DB6A022B7FD0BB68012B98
:103F100002D0BB68002B79D1786801F03FF80346E6
:103F2000002B4CD17B681B681A687B681B6822F4E5
:103F300080621A607B681B685A687B681B6822F481
:103F4000E0625A607B681B681A697B685B6AD2B260
:103F50001A707B685B6A5A1C7B685A627B685B8D4F
:103F60009BB2013B9AB27B685A857B68202283F81A
:103F70003D207B6893F83E30DBB2402B0AD17B6852
:103F8000002283F83E207B6800221A637868FFF7DE
:103F9000B8FD44E07B68002283F83E20FB68082BD4
:103FA00002D0FB68202B03D17B6800221A6302E059
:103FB0007B6812221A637868FFF76DFD2FE07B683B
:103FC0001B685A687B681B6822F4E0625A607B6851
:103FD0001B681A697B685B6AD2B21A707B685B6A7D
:103FE0005A1C7B685A627B685B8D9BB2013B9AB21C
:103FF0007B685A857B68202283F83D207B680022FD
:1040000083F83E207868FEF757FB08E07B681B6862
:104010005A687B681B6822F480625A60FFE700BF21
:104020001037BD4680BD80B584B000AF78607B6836
:10403000DB6AFB607B685B8D9BB2042B1BD17B68CA
:104040001B685A687B681B6822F480625A607B6830
:104050001B681A697B685B6AD2B21A707B685B6AFC
:104060005A1C7B685A627B685B8D9BB2013B9AB29B
:104070007B685A85C8E07B685B8D9BB2032B29D196
:104080007B681B685A687B681B6822F480625A60F0
:10409000FB68042B0AD0FB68022B07D07B681B68E7
:1040A0001A687B681B6822F480621A607B681B6850
:1040B0001A697B685B6AD2B21A707B685B6A5A1CA9
:1040C0007B685A627B685B8D9BB2013B9AB27B68CE
:1040D0005A8599E07B685B8D9BB2022B40F0818012
:1040E000FB68012B02D0FB68102B08D17B681B6892
:1040F0001A687B681B6822F480621A6019E0FB680A
:10410000042B02D0FB68022B08D17B681B681A685D
:104110007B681B6842F480621A600AE0FB68102B1F
:1041200007D07B681B681A687B681B6842F40072C2
:104130001A607B681B681A697B685B6AD2B21A7066
:104140007B685B6A5A1C7B685A627B685B8D9BB29A
:10415000013B9AB27B685A857B681B681A697B6849
:104160005B6AD2B21A707B685B6A5A1C7B685A62BF
:104170007B685B8D9BB2013B9AB27B685A857B68FA
:104180001B685A687B681B6822F440725A607B681F
:10419000202283F83D207B6893F83E30DBB2402B31
:1041A0000AD17B68002283F83E207B6800221A63D4
:1041B0007868FFF7A6FC27E07B68002283F83E20A2
:1041C000FB68082B02D0FB68202B03D17B68002200
:1041D0001A6302E07B6812221A637868FFF75BFCBF
:1041E00012E07B681B681A697B685B6AD2B21A703E
:1041F0007B685B6A5A1C7B685A627B685B8D9BB2EA
:10420000013B9AB27B685A8500BF1037BD4680BD1E
:1042100080B483B000AF78607B6893F83E30DBB247
:10422000402B17D17B681B6D002B09D17B685B6C21
:10423000DBB21A467B681B6802F0FE021A6167E077
:104240007B685B6CDBB243F00103DAB27B681B680E
:104250001A615DE07B681B69B3F5804F33D17B68E1
:1042600093F83D30DBB2212B09D17B685B6CDBB26C
:104270001A467B681B6802F0FE021A6108E07B6840
:104280005B6CDBB243F00103DAB27B681B681A6136
:104290007B685B6B002B04D07B685B6BDB6B002B5C
:1042A00008D17B689B6B002B32D07B689B6BDB6BF0
:1042B000002B2DD07B681B685A687B681B6842F412
:1042C00000625A6024E07B681B6D002B0ED17B6876
:1042D0005B6C9BB2DB11DBB203F00603DBB263F075
:1042E0000F03DAB27B681B681A6111E07B681B6DF3
:1042F000012B0DD17B685B6C9BB2DB11DBB203F051
:104300000603DBB263F00E03DAB27B681B681A6146
:1043100000BF0C37BD465DF8047B704780B483B0A6
:1043200000AF78607B685B6CDAB27B681B681A61EF
:104330007B685B6B002B04D07B685B6BDB6B002BBB
:1043400008D17B689B6B002B0CD07B689B6BDB6B75
:10435000002B07D07B681B685A687B681B6842F497
:1043600000625A6000BF0C37BD465DF8047B7047A1
:1043700080B491B000AF78607B6893F83E3087F8E6
:104380003F307B68DB6ABB637B681B6B7B637B684E
:1043900093F83D30DBB2222B40F069817B681B6DC6
:1043A000002B0FD197F83F30402B0BD100233B63FC
:1043B0007B681B685B693B637B681B689B693B632D
:1043C0003B6B60E17B681B6D002B1DD17B681B691B
:1043D000B3F5404F18D10023FB627B681B685B6913
:1043E000FB627B681B689B69FB62FB6A7B681B68DE
:1043F0001A687B681B6842F480721A607B681B6DC8
:104400005A1C7B681A653EE17B685B8D9BB2002B72
:1044100013D10023BB627B681B685B69BB627B684E
:104420001B689B69BB62BB6A7B681B681A687B68F8
:104430001B6842F400721A6015E17B685B8D9BB2C9
:10444000012B40F08A80BB6B13F5803F37D17B682E
:104450001B681A687B681B6822F480621A607B689C
:104460001B685B6803F40063B3F5006F13D17B68CE
:104470001B681A687B681B6822F480621A6000233C
:104480007B627B681B685B697B627B681B689B69DE
:104490007B627B6AE7E000233B627B681B685B69A9
:1044A0003B627B681B689B693B623B6A7B681B685D
:1044B0001A687B681B6842F400721A60D3E0BB6B19
:1044C000082B2ED0BB6B202B2BD07B6B122B02D159
:1044D000BB6B012B25D1BB6B042B0ED0BB6B022B0E
:1044E0000BD0BB6B102B08D07B681B681A687B68ED
:1044F0001B6822F480621A6007E07B681B681A68F8
:104500007B681B6842F480621A600023FB617B6851
:104510001B685B69FB617B681B689B69FB61FB69CE
:10452000A1E07B681B681A687B681B6822F48062C4
:104530001A600023BB617B681B685B69BB617B6899
:104540001B689B69BB61BB697B681B681A687B68D9
:104550001B6842F400721A6085E07B685B8D9BB239
:10456000022B4DD1BB6B042B16D0BB6B022B13D08F
:10457000BB6B102B10D07B681B681A687B681B68AC
:1045800022F480621A607B681B681A687B681B686B
:1045900042F400621A6007E07B681B681A687B6857
:1045A0001B6842F480621A607B681B685B6803F4D6
:1045B0000063B3F5006F17D1BB6B13F5803F0BD0D1
:1045C000BB6B012B08D0BB6B082B05D0BB6B102B32
:1045D00002D0BB6B202B07D17B681B685A687B68B5
:1045E0001B6842F480525A6000237B617B681B6821
:1045F0005B697B617B681B689B697B617B6932E0DF
:104600007B681B681A687B681B6842F480621A60CA
:104610007B681B685B6803F40063B3F5006F17D118
:10462000BB6B13F5803F0BD0BB6B012B08D0BB6B72
:10463000082B05D0BB6B102B02D0BB6B202B07D1F6
:104640007B681B685A687B681B6842F480525A601A
:1046500000233B617B681B685B693B617B681B686F
:104660009B693B613B697B6800221A650BE0002374
:10467000FB607B681B685B69FB607B681B689B69F0
:10468000FB60FB68FFE700BF4437BD465DF8047B75
:10469000704780B584B000AF78607B6893F83D3098
:1046A000FB737B685B8D9BB2002B2BD07B685B6AB6
:1046B0001A787B681B681A617B685B6A5A1C7B6886
:1046C0005A627B685B8D9BB2013B9AB27B685A85CC
:1046D0007B685B8D9BB2002B14D1FB7B292B11D106
:1046E0007B681B685A687B681B6822F480625A608A
:1046F0007B6821221A637B68282283F83D20786832
:10470000FDF7C8FF00BF1037BD4680BD80B483B041
:1047100000AF78607B685B8D9BB2002B11D07B680B
:104720005B6A1A787B681B681A617B685B6A5A1C33
:104730007B685A627B685B8D9BB2013B9AB27B6857
:104740005A8500BF0C37BD465DF8047B704780B5C5
:1047500084B000AF78607B6893F83D30FB737B6872
:104760005B8D9BB2002B2CD07B681B681A697B6821
:104770005B6AD2B21A707B685B6A5A1C7B685A62A9
:104780007B685B8D9BB2013B9AB27B685A857B68E4
:104790005B8D9BB2002B14D1FB7B2A2B11D17B6844
:1047A0001B685A687B681B6822F480625A607B68C9
:1047B00022221A637B68282283F83D207868FFF75D
:1047C00074F900BF1037BD4680BD80B483B000AF20
:1047D00078607B685B8D9BB2002B12D07B681B6876
:1047E0001A697B685B6AD2B21A707B685B6A5A1C72
:1047F0007B685A627B685B8D9BB2013B9AB27B6897
:104800005A8500BF0C37BD465DF8047B704780B504
:1048100084B000AF786039600023FB737B6893F845
:104820003D30DBB203F02803282B25D17B681B68C1
:104830005A687B681B6822F480625A603B6803F008
:104840000403002B01D10123FB733B6803F08003B9
:10485000002B03D17B68DB68BB8102E07B689B692E
:10486000BB817B68002283F83C20BA89FB7B194618
:104870007868FFF724F90EE00023BB607B681B68B3
:104880005B69BB607B681B689B69BB60BB687B68BE
:10489000002283F83C2000BF1037BD4680BD0000D9
:1048A00080B584B000AF78607B6893F83D30FB73CF
:1048B0007B681B685A687B681B6822F4E0625A6058
:1048C0000023BB607B681B685B69BB607B681B68FF
:1048D0001A687B681B6842F001021A60BB687B683B
:1048E0001B681A687B681B6822F480621A607B6808
:1048F0001B685B6803F40063B3F5006F72D1FB7B48
:10490000222B02D0FB7B2A2B35D17B689B6B1B684B
:104910005B689AB27B685A857B685B8D9BB2002B83
:1049200005D07B681B6C43F004027B681A647B68CB
:104930001B685A687B681B6822F400625A607B68B7
:104940009B6B1846FEF7A5FB0346012B49D07B68FD
:104950009B6B694A1A657B689B6B1846FEF777FB71
:104960000346002B3DD07B689B6B1B6D7A68926B76
:104970001046984735E07B685B6B1B685B689AB2B2
:104980007B685A857B685B8D9BB2002B05D07B686A
:104990001B6C43F004027B681A647B681B685A68CE
:1049A0007B681B6822F400625A607B685B6B184668
:1049B000FEF76FFB0346012B14D07B685B6B4E4AFE
:1049C0001A657B685B6B1846FEF741FB0346002BBC
:1049D00008D07B685B6B1B6D7A68526B10469847FA
:1049E00000E000BF7B685B8D9BB2002B3ED07B68F4
:1049F0001B685B6903F00403042B12D17B681B68FE
:104A00001A697B685B6AD2B21A707B685B6A5A1C4F
:104A10007B685A627B685B8D9BB2013B9AB27B6874
:104A20005A857B681B685B6903F04003402B12D1F9
:104A30007B681B681A697B685B6AD2B21A707B68F4
:104A40005B6A5A1C7B685A627B685B8D9BB2013B38
:104A50009AB27B685A857B685B8D9BB2002B05D030
:104A60007B681B6C43F004027B681A647B681B6CD8
:104A7000002B03D0786800F0B7F839E0FB7B2A2BD5
:104A800009D17B6800221A637B68282283F83D20C5
:104A90007868FFF70AF87B6893F83D30DBB2282B83
:104AA00011D17B68154ADA627B6800221A637B6841
:104AB000202283F83D207B68002283F83E2078681E
:104AC000FFF70BF814E07B681B6B222B02D0FB7BFB
:104AD000222B0DD17B6800221A637B68202283F889
:104AE0003D207B68002283F83E207868FEF7DDFFDA
:104AF00000BF1037BD4680BD4D4E00080000FFFFCF
:104B000080B584B000AF78607B6893F83D30FB736C
:104B10007B68DB6ABB60BB68082B02D0BB68202BBC
:104B200029D1FB7B282B26D17B682E4ADA627B6851
:104B30001B685A687B681B6822F4E0625A607B68D5
:104B40001B686FF480625A617B681B681A687B6817
:104B50001B6822F480621A607B6800221A637B68FB
:104B6000202283F83D207B68002283F83E2078686D
:104B7000FEF7B3FF31E0FB7B212B29D17B68194A7B
:104B8000DA627B6821221A637B68202283F83D2049
:104B90007B68002283F83E207B681B685A687B682C
:104BA0001B6822F4E0625A607B681B686FF48062C5
:104BB0005A617B681B681A687B681B6822F48062F4
:104BC0001A607868FEF756FD7868FDF763FD04E02B
:104BD0007B681B686FF480625A6100BF1037BD4666
:104BE00080BD00BF0000FFFF80B584B000AF7860DB
:104BF0007B6893F83D30FB737B6893F83E30BB7362
:104C0000BB7B102B02D0BB7B402B0AD1FB7B222B22
:104C100007D17B681B681A687B681B6822F40062F6
:104C20001A60FB7B03F02803282B07D17B68002246
:104C30001A637B68282283F83D2015E07B681B6897
:104C40005B6803F40063B3F5006F0AD0FB7B602B55
:104C500007D07B68202283F83D207B68002283F800
:104C60003E207B6800221A637B681B685B6803F444
:104C70000063B3F5006F62D17B681B685A687B687C
:104C80001B6822F400625A607B685B6B93F83530D6
:104C9000DBB2012B20D07B685B6B6A4A1A657B68AC
:104CA0005B6B1846FEF7D3F90346002B00F08980B2
:104CB0007B681B681A687B681B6822F001021A6017
:104CC0007B68202283F83D207B685B6B1B6D7A68D4
:104CD000526B1046984774E07B689B6B594A1A6583
:104CE0007B689B6B1846FEF7B2F90346002B68D031
:104CF0007B681B685B6903F04003402B0BD17B682A
:104D00001B681A697B685B6AD2B21A707B685B6A3F
:104D10005A1C7B685A627B681B681A687B681B6830
:104D200022F001021A607B68202283F83D207B6814
:104D30009B6B1B6D7A68926B1046984741E07B68CD
:104D400093F83D30DBB2602B25D17B68202283F8BD
:104D50003D207B6800221A647B681B685B6903F056
:104D60004003402B0BD17B681B681A697B685B6A28
:104D7000D2B21A707B685B6A5A1C7B685A627B6885
:104D80001B681A687B681B6822F001021A60786849
:104D9000FEF7C1FE15E07B681B685B6903F040030A
:104DA000402B0BD17B681B681A697B685B6AD2B2A7
:104DB0001A707B685B6A5A1C7B685A627868FDF7D8
:104DC0007BFC7B681B6CBB60BB6803F00103002BA2
:104DD0000ED1BB6803F00203002B09D1BB6803F0BE
:104DE0000403002B04D1BB6803F00803002B07D099
:104DF0007B681B685A687B681B6822F4E0625A6013
:104E00007B6893F83D30FB737B681B6C03F00403F5
:104E1000042B13D1FB7B282B10D17B680A4ADA6262
:104E20007B6800221A637B68202283F83D207B6820
:104E3000002283F83E207868FEF74FFE00BF10374F
:104E4000BD4680BD4D4E00080000FFFF80B586B016
:104E500000AF78600023FB607B689B6B7B617B69A4
:104E600093F83D30FB744B4B1B68DB084A4AA2FBAE
:104E700003231A0A13469B001344DA00D31AFB607B
:104E8000FB68002B06D17B691B6C43F020027B6919
:104E90001A640AE0FB68013BFB607B691B681B68C6
:104EA00003F40073B3F5007FEAD07B695B6B002BE2
:104EB00003D07B695B6B0022DA637B699B6B002B01
:104EC00003D07B699B6B0022DA637B691B681A68DD
:104ED0007B691B6822F480621A607B6900225A8514
:104EE0007B695B6B002B03D07B695B6B00221A65CF
:104EF0007B699B6B002B03D07B699B6B00221A653F
:104F00007B691B681A687B691B6822F001021A60C2
:104F10007B6993F83D30DBB2602B0ED17B69202298
:104F200083F83D207B69002283F83E207B690022C4
:104F30001A647869FEF7EFFD27E0FB7C03F0280395
:104F4000282B17D17B691B681A687B691B6842F0A4
:104F500001021A607B691B681A687B691B6842F44E
:104F600080621A607B6900221A637B69282283F8B9
:104F70003D2007E07B69202283F83D207B690022E9
:104F800083F83E207869FDF797FB00BF1837BD46D0
:104F900080BD00BF7800002089B5F81480B485B0CA
:104FA00000AF78600023FB60134B1B68DB08134ADB
:104FB000A2FB03231A0A13469B001344FB60FB6801
:104FC000013BFB60FB68002B07D17B681B6C43F047
:104FD00020027B681A64012308E07B681B681B6859
:104FE00003F40073B3F5007FE9D0002318461437AB
:104FF000BD465DF8047B70477800002089B5F81441
:1050000080B483B000AF78607B68DB6AB3F52A0FA9
:1050100003D17B680122DA6207E07B68DB6AB3F1C7
:105020002A4F02D17B680822DA6200BF0C37BD46E6
:105030005DF8047B7047000080B586B000AF7860F3
:105040007B68002B01D1012367E27B681B6803F0BA
:105050000103002B75D0884B9B6803F00C03042BD5
:105060000CD0854B9B6803F00C03082B12D1824BAC
:105070005B6803F48003B3F5800F0BD17E4B1B6894
:1050800003F40033002B5BD07B685B68002B57D1A7
:10509000012342E27B685B68B3F5803F06D1764B23
:1050A0001B68754A43F4803313601DE07B685B68BE
:1050B000B3F5A02F0CD1704B1B686F4A43F48023CB
:1050C00013606D4B1B686C4A43F4803313600BE034
:1050D000694B1B68684A23F480331360664B1B6876
:1050E000654A23F4802313607B685B68002B13D030
:1050F000FDF7FCFD386108E0FDF7F8FD02463B696D
:10510000D31A642B01D9032307E25B4B1B6803F41A
:105110000033002BF0D014E0FDF7E8FD386108E023
:10512000FDF7E4FD02463B69D31A642B01D9032342
:10513000F3E1514B1B6803F40033002BF0D100E086
:1051400000BF7B681B6803F00203002B63D04A4B4F
:105150009B6803F00C03002B0BD0474B9B6803F0BC
:105160000C03082B1CD1444B5B6803F48003002B19
:1051700016D1414B1B6803F00203002B05D07B685E
:10518000DB68012B01D00123C7E13B4B1B6823F0F7
:10519000F8027B681B69DB00374913430B603AE078
:1051A0007B68DB68002B20D0344B01221A60FDF7AE
:1051B0009DFD386108E0FDF799FD02463B69D31A71
:1051C000022B01D90323A8E12B4B1B6803F0020338
:1051D000002BF0D0284B1B6823F0F8027B681B697A
:1051E000DB00254913430B6015E0244B00221A60B5
:1051F000FDF77CFD386108E0FDF778FD02463B696C
:10520000D31A022B01D9032387E11B4B1B6803F040
:105210000203002BF0D17B681B6803F00803002B0E
:1052200036D07B685B69002B16D0154B01221A60C3
:10523000FDF75CFD386108E0FDF758FD02463B696B
:10524000D31A022B01D9032367E10B4B5B6F03F0E9
:105250000203002BF0D01BE0094B00221A60FDF77F
:1052600045FD38610EE0FDF741FD02463B69D31A6A
:10527000022B07D9032350E10038024000004742C7
:10528000800E4742884B5B6F03F00203002BEAD18C
:105290007B681B6803F00403002B00F09780002359
:1052A000FB75814B1B6C03F08053002B0FD1002347
:1052B000BB607D4B1B6C7C4A43F0805313647A4B7C
:1052C0001B6C03F08053BB60BB680123FB75774BFD
:1052D0001B6803F48073002B18D1744B1B68734A4E
:1052E00043F480731360FDF701FD386108E0FDF7BA
:1052F000FDFC02463B69D31A022B01D903230CE1C2
:105300006A4B1B6803F48073002BF0D07B689B68AA
:10531000012B06D1644B1B6F634A43F001031367F3
:105320001CE07B689B68052B0CD15F4B1B6F5E4AB2
:1053300043F0040313675C4B1B6F5B4A43F00103AC
:1053400013670BE0584B1B6F574A23F00103136799
:10535000554B1B6F544A23F0040313677B689B680B
:10536000002B15D0FDF7C2FC38610AE0FDF7BEFC4A
:1053700002463B69D31A41F28832934201D9032392
:10538000CBE0494B1B6F03F00203002BEED014E07F
:10539000FDF7ACFC38610AE0FDF7A8FC02463B696A
:1053A000D31A41F28832934201D90323B5E03E4B30
:1053B0001B6F03F00203002BEED1FB7D012B05D107
:1053C000394B1B6C384A23F0805313647B689B690C
:1053D000002B00F0A180344B9B6803F00C03082BDA
:1053E0005CD07B689B69022B41D1314B00221A6053
:1053F000FDF77CFC386108E0FDF778FC02463B696C
:10540000D31A022B01D9032387E0274B1B6803F033
:105410000073002BF0D17B68DA697B681B6A1A4342
:105420007B685B6A9B011A437B689B6A5B08013B54
:105430001B041A437B68DB6A1B061B4913434B6042
:105440001B4B01221A60FDF751FC386108E0FDF7A3
:105450004DFC02463B69D31A022B01D903235CE0C1
:10546000114B1B6803F00073002BF0D054E0104B7D
:1054700000221A60FDF73AFC386108E0FDF736FCBF
:1054800002463B69D31A022B01D9032345E0064BA0
:105490001B6803F00073002BF0D13DE07B689B6933
:1054A000012B07D1012338E0003802400070004092
:1054B000600047421B4B5B68FB607B689B69012B6C
:1054C00028D0FB6803F480027B68DB699A4221D113
:1054D000FB6803F03F027B681B6A9A421AD1FA68A4
:1054E00047F6C07313407A68526A9201934211D111
:1054F000FB6803F440327B689B6A5B08013B1B043A
:105500009A4207D1FB6803F070627B68DB6A1B0676
:105510009A4201D0012300E0002318461837BD4607
:1055200080BD00BF0038024080B584B000AF786015
:1055300039607B68002B01D10123CCE0684B1B68EC
:1055400003F007033A689A420CD9654B3A68D2B225
:105550001A70634B1B6803F007033A689A4201D044
:105560000123B8E07B681B6803F00203002B20D006
:105570007B681B6803F00403002B05D0594B9B6824
:10558000584A43F4E05393607B681B6803F00803B8
:10559000002B05D0534B9B68524A43F46043936001
:1055A000504B9B6823F0F0027B689B684D49134386
:1055B0008B607B681B6803F00103002B44D07B6881
:1055C0005B68012B07D1474B1B6803F40033002BAA
:1055D00019D101237FE07B685B68022B03D07B68D5
:1055E0005B68032B07D13F4B1B6803F00073002B54
:1055F00009D101236FE03B4B1B6803F00203002B32
:1056000001D1012367E0374B9B6823F003027B68DD
:105610005B68344913438B60FDF768FBF8600AE070
:10562000FDF764FB0246FB68D31A41F288329342CD
:1056300001D903234FE02B4B9B6803F00C027B68DE
:105640005B689B009A42EBD1254B1B6803F0070374
:105650003A689A420CD2224B3A68D2B21A70204B66
:105660001B6803F007033A689A4201D0012332E035
:105670007B681B6803F00403002B08D0194B9B6860
:1056800023F4E0527B68DB68164913438B607B6828
:105690001B6803F00803002B09D0124B9B6823F40E
:1056A00060427B681B69DB000E4913438B6000F08E
:1056B00021F802460B4B9B681B0903F00F030A49B4
:1056C000CB5C22FA03F3094A1360094B1B681846A6
:1056D000FDF7C8FA002318461037BD4680BD00BF4D
:1056E000003C024000380240BCAE000878000020B8
:1056F0007C0000202DE9B04F90B000AF00237B6309
:105700000023FB6300233B630023BB63594B9B686F
:1057100003F00C03082B0DD0082B00F2A180002B06
:1057200002D0042B03D09BE0534BBB639BE0534B55
:10573000BB6398E04F4B5B6803F03F037B634D4BCB
:105740005B6803F48003002B28D04A4B5B689B09FD
:1057500000223B627A623B6AC3F308000021474B98
:1057600003FB01F2002300FB03F31344434AA0FBB5
:105770000212FA620A46BA62FA6A1344FB627B6B4F
:105780000022BB61FA61D7E90623D7E90A01FBF7DA
:1057900063FA02460B461346FB6353E0354B5B68E6
:1057A0009B0900223B617A613B69C3F3080A4FF011
:1057B000000B52465B464FF000004FF000015901CC
:1057C00041EAD261500102460B46B2EB0A0863EB94
:1057D0000B094FF000024FF000034FEA891343EA30
:1057E00098634FEA8812B2EB080463EB09054FF0A7
:1057F00000024FF00003EB0043EA5473E20014464A
:105800001D4614EB0A033B6045EB0B037B604FF036
:1058100000024FF00003D7E9004529468B022146DC
:1058200043EA915321468A02104619467B6B0022B7
:10583000BB60FA60D7E90223FBF70EFA02460B467B
:105840001346FB630B4B5B681B0C03F00303013334
:105850005B003B63FA6B3B6BB2FBF3F3BB6302E0B1
:10586000054BBB6300BFBB6B18464037BD46BDE868
:10587000B08F00BF003802400024F40040787D0162
:1058800080B400AF034B1B681846BD465DF8047B2F
:10589000704700BF7800002080B500AFFFF7F0FF31
:1058A0000246054B9B689B0A03F007030349CB5C48
:1058B00022FA03F3184680BD00380240CCAE00083F
:1058C00080B500AFFFF7DCFF0246054B9B685B0B22
:1058D00003F007030349CB5C22FA03F3184680BDAB
:1058E00000380240CCAE000880B582B000AF7860CE
:1058F0007B68002B01D1012341E07B6893F83D30A8
:10590000DBB2002B06D17B68002283F83C2078684C
:10591000FCF786FF7B68022283F83D207B681A68CB
:105920007B6804331946104600F00CFA7B680122AC
:1059300083F846207B68012283F83E207B680122A1
:1059400083F83F207B68012283F840207B68012296
:1059500083F841207B68012283F842207B68012282
:1059600083F843207B68012283F844207B6801226E
:1059700083F845207B68012283F83D2000231846E8
:105980000837BD4680BD80B584B000AF78607B68C5
:105990001B68DB68FB607B681B681B69BB60BB68BE
:1059A00003F00203002B20D0FB6803F00203002B5E
:1059B0001BD07B681B686FF002021A617B680122B2
:1059C0001A777B681B689B6903F00303002B03D0E5
:1059D000786800F099F905E0786800F08BF978684C
:1059E00000F09CF97B6800221A77BB6803F004037F
:1059F000002B20D0FB6803F00403002B1BD07B6836
:105A00001B686FF004021A617B6802221A777B68B8
:105A10001B689B6903F44073002B03D0786800F087
:105A200073F905E0786800F065F9786800F076F9B8
:105A30007B6800221A77BB6803F00803002B20D094
:105A4000FB6803F00803002B1BD07B681B686FF01A
:105A500008021A617B6804221A777B681B68DB697D
:105A600003F00303002B03D0786800F04DF905E044
:105A7000786800F03FF9786800F050F97B68002200
:105A80001A77BB6803F01003002B20D0FB6803F0EB
:105A90001003002B1BD07B681B686FF010021A618B
:105AA0007B6808221A777B681B68DB6903F4407304
:105AB000002B03D0786800F027F905E0786800F043
:105AC00019F9786800F02AF97B6800221A77BB6818
:105AD00003F00103002B0CD0FB6803F00103002B43
