:020000040800F2
:1000000000000120992600088124000887240008A8
:100010008D240008932400089924000800000000A3
:100020000000000000000000000000009F24000805
:10003000AD24000800000000BB240008C92400080B
:10004000E9260008E9260008E9260008E926000854
:10005000E9260008E9260008E9260008E926000844
:10006000E9260008E9260008E9260008E926000834
:10007000E9260008E9260008E9260008E926000824
:10008000E9260008E9260008E9260008000000002B
:10009000000000000000000000000000E926000849
:1000A000E9260008E9260008E9260008E9260008F4
:1000B000E9260008E9260008E9260008E9260008E4
:1000C000E9260008E9260008E9260008E9260008D4
:1000D000E9260008E9260008D524000800000000F1
:1000E000E9260008E9260008E926000800000000CB
:1000F000000000000000000000000000E9260008E9
:1001000000000000E9260008E9260008E9260008AA
:1001100000000000000000000000000000000000DF
:10012000E9260008E9260008E9260008E926000873
:10013000E9260008000000000000000000000000A8
:10014000000000000000000000000000E926000898
:10015000E9260008E9260008E9260008E926000843
:10016000E9260008E9260008000000000000000061
:10017000000000000000000000000000000000007F
:1001800000000000E9260008000000000000000058
:04019000E926000854
:1001A00010B5054C237833B9044B13B10448AFF3B1
:1001B00000800123237010BDF0010020000000002A
:1001C000907A000808B5034B1BB103490348AFF30D
:1001D000008008BD00000000F4010020907A0008B3
:1001E00001F0FF01102A2BDB10F0070F08D010F8E8
:1001F000013B013A8B422DD010F0070F42B3F6D1EC
:10020000F0B441EA012141EA014122F007047FF004
:1002100000070023F0E80256083C85EA010586EA5B
:10022000010685FA47F5A3FA87F586FA47F6A5FA97
:1002300087F68EB9EED1F0BC01F0FF0102F00702A3
:1002400032B110F8013B013A83EA010313B1F8D14E
:100250000020704701387047002D06BF354603382F
:10026000073815F0010F07D1013015F4807F02BF68
:10027000013015F4C03F0130F0BC0138704700BFB9
:10028000034613F8012B002AFBD1181A01387047D6
:1002900081F0004102E000BF83F0004330B54FEA37
:1002A00041044FEA430594EA050F08BF90EA020FA4
:1002B0001FBF54EA000C55EA020C7FEA645C7FEA37
:1002C000655C00F0E2804FEA5454D4EB5555B8BF5A
:1002D0006D420CDD2C4480EA020281EA030382EACB
:1002E000000083EA010180EA020281EA0303362D5D
:1002F00088BF30BD11F0004F4FEA01314FF4801C30
:100300004CEA113102D0404261EB410113F0004F41
:100310004FEA03334CEA133302D0524263EB4303F8
:1003200094EA050F00F0A780A4F10104D5F1200E96
:100330000DDB02FA0EFC22FA05F2801841F10001F1
:1003400003FA0EF2801843FA05F359410EE0A5F1C5
:1003500020050EF1200E012A03FA0EFC28BF4CF0F6
:10036000020C43FA05F3C01851EBE37101F00045AC
:1003700007D54FF0000EDCF1000C7EEB00006EEBB9
:100380000101B1F5801F1BD3B1F5001F0CD3490843
:100390005FEA30004FEA3C0C04F101044FEA44529A
:1003A00012F5800F80F09A80BCF1004F08BF5FEA21
:1003B000500C50F1000041EB045141EA050130BD01
:1003C0005FEA4C0C404141EB0101013C28BFB1F513
:1003D000801FE9D291F0000F04BF01460020B1FA5E
:1003E00081F308BF2033A3F10B03B3F120020CDA31
:1003F0000C3208DD02F1140CC2F10C0201FA0CF00F
:1004000021FA02F10CE002F11402D8BFC2F1200C73
:1004100001FA02F120FA0CFCDCBF41EA0C01904029
:10042000E41AA2BF01EB0451294330BD6FEA040472
:100430001F3C1CDA0C340EDC04F11404C4F120025D
:1004400020FA04F001FA02F340EA030021FA04F36F
:1004500045EA030130BDC4F10C04C4F1200220FAC6
:1004600002F001FA04F340EA0300294630BD21FA04
:1004700004F0294630BD94F0000F83F4801306BFCA
:1004800081F480110134013D4EE77FEA645C18BFBE
:100490007FEA655C29D094EA050F08BF90EA020F55
:1004A00005D054EA000C04BF1946104630BD91EA4D
:1004B000030F1EBF0021002030BD5FEA545C05D150
:1004C0004000494128BF41F0004130BD14F580048F
:1004D0003CBF01F5801130BD01F0004545F0FE4103
:1004E00041F470014FF0000030BD7FEA645C1ABF38
:1004F000194610467FEA655C1CBF0B46024650EA6F
:10050000013406BF52EA033591EA030F41F400219A
:1005100030BD00BF90F0000F04BF0021704730B520
:100520004FF4806404F132044FF000054FF00001F5
:1005300050E700BF90F0000F04BF0021704730B5B6
:100540004FF4806404F1320410F0004548BF40428B
:100550004FF000013EE700BF42004FEAE2014FEAE0
:1005600031014FEA02701FBF12F07F4393F07F4FBB
:1005700081F06051704732F07F4208BF704793F0BE
:100580007F4F04BF41F40021704730B54FF46074D1
:1005900001F0004521F000411CE700BF50EA0102D4
:1005A00008BF704730B54FF000050AE050EA01027D
:1005B00008BF704730B511F0004502D5404261EBED
:1005C00041014FF4806404F132045FEA915C3FF42E
:1005D000D8AE4FF003025FEADC0C18BF03325FEACB
:1005E000DC0C18BF033202EBDC02C2F1200300FA7C
:1005F00003FC20FA02F001FA03FE40EA0E0021FAA1
:1006000002F11444BDE600BF70B54FF0FF0C4CF48E
:10061000E06C1CEA11541DBF1CEA135594EA0C0F40
:1006200095EA0C0F00F0DEF82C4481EA030621EA7B
:100630004C5123EA4C5350EA013518BF52EA0335B6
:1006400041F4801143F4801338D0A0FB02CE4FF068
:100650000005E1FB02E506F00042E0FB03E54FF098
:100660000006E1FB03569CF0000F18BF4EF0010E90
:10067000A4F1FF04B6F5007F64F5407404D25FEA8C
:100680004E0E6D4146EB060642EAC62141EA55513F
:100690004FEAC52040EA5E504FEACE2EB4F1FD0C81
:1006A00088BFBCF5E06F1ED8BEF1004F08BF5FEAFF
:1006B000500E50F1000041EB045170BD06F00046B1
:1006C00046EA010140EA020081EA0301B4EB5C045E
:1006D000C2BFD4EB0C0541EA045170BD41F4801156
:1006E0004FF0000E013C00F3AB8014F1360FDEBF7B
:1006F000002001F0004170BDC4F10004203C35DA57
:100700000C341BDC04F11404C4F1200500FA05F3D9
:1007100020FA04F001FA05F240EA020001F000427A
:1007200021F0004110EBD37021FA04F642EB0601F0
:100730005EEA430E08BF20EAD37070BDC4F10C041A
:10074000C4F1200500FA04F320FA05F001FA04F2DE
:1007500040EA020001F0004110EBD37041F10001CA
:100760005EEA430E08BF20EAD37070BDC4F12005D5
:1007700000FA05F24EEA020E20FA04F301FA05F23D
:1007800043EA020321FA04F001F0004121FA04F2E5
:1007900020EA020000EBD3705EEA430E08BF20EAB5
:1007A000D37070BD94F0000F0FD101F000464000EF
:1007B00041EB010111F4801F08BF013CF7D041EA71
:1007C000060195F0000F18BF704703F00046520075
:1007D00043EB030313F4801F08BF013DF7D043EA46
:1007E0000603704794EA0C0F0CEA135518BF95EAFC
:1007F0000C0F0CD050EA410618BF52EA4306D1D183
:1008000081EA030101F000414FF0000070BD50EAA1
:10081000410606BF1046194652EA430619D094EA2B
:100820000C0F02D150EA013613D195EA0C0F05D115
:1008300052EA03361CBF104619460AD181EA030169
:1008400001F0004141F0FE4141F470014FF0000021
:1008500070BD41F0FE4141F4780170BD70B54FF0BC
:10086000FF0C4CF4E06C1CEA11541DBF1CEA13553C
:1008700094EA0C0F95EA0C0F00F0A7F8A4EB05041E
:1008800081EA030E52EA03354FEA013100F0888015
:100890004FEA03334FF0805545EA131343EA1263DE
:1008A0004FEA022245EA111545EA10654FEA002693
:1008B0000EF000419D4208BF964244F1FD0404F54C
:1008C000407402D25B084FEA3202B61A65EB0305A8
:1008D0005B084FEA32024FF480104FF4002CB6EB65
:1008E000020E75EB030E22BFB61A754640EA0C00E5
:1008F0005B084FEA3202B6EB020E75EB030E22BF25
:10090000B61A754640EA5C005B084FEA3202B6EB65
:10091000020E75EB030E22BFB61A754640EA9C0024
:100920005B084FEA3202B6EB020E75EB030E22BFF4
:10093000B61A754640EADC0055EA060E18D04FEAB2
:10094000051545EA16754FEA06164FEAC30343EA52
:1009500052734FEAC2025FEA1C1CC0D111F4801F1F
:100960000BD141EA00014FF000004FF0004CB6E718
:1009700011F4801F04BF01430020B4F1FD0C88BFB7
:10098000BCF5E06F3FF6AFAEB5EB030C04BFB6EBC2
:10099000020C5FEA500C50F1000041EB045170BDB5
:1009A0000EF0004E4EEA113114EB5C04C2BFD4EBE2
:1009B0000C0541EA045170BD41F480114FF0000E66
:1009C000013C90E645EA060E8DE60CEA135594EAE2
:1009D0000C0F08BF95EA0C0F3FF43BAF94EA0C0FE5
:1009E0000AD150EA01347FF434AF95EA0C0F7FF45A
:1009F00025AF104619462CE795EA0C0F06D152EAAE
:100A000003353FF4FDAE1046194622E750EA410691
:100A100018BF52EA43067FF4C5AE50EA41047FF4A2
:100A20000DAF52EA43057FF4EBAE12E74FF0FF3C07
:100A300006E000BF4FF0010C02E000BF4FF0010CD8
:100A40004DF804CD4FEA410C7FEA6C5C4FEA430C51
:100A500018BF7FEA6C5C1BD001B050EA410C0CBFA0
:100A600052EA430C91EA030F02BF90EA020F002002
:100A7000704710F1000F91EA030F58BF994208BF69
:100A800090422CBFD8176FEAE37040F00100704726
:100A90004FEA410C7FEA6C5C02D150EA013C07D17D
:100AA0004FEA430C7FEA6C5CD6D152EA033CD3D0C8
:100AB0005DF8040B704700BF8446104662468C46C2
:100AC0001946634600E000BF01B5FFF7B7FF0028F5
:100AD00048BF10F1000F01BD4DF808EDFFF7F4FF1E
:100AE0000CBF012000205DF808FB00BF4DF808EDA9
:100AF000FFF7EAFF34BF012000205DF808FB00BFCC
:100B00004DF808EDFFF7E0FF94BF012000205DF8ED
:100B100008FB00BF4DF808EDFFF7CEFF94BF0120A2
:100B200000205DF808FB00BF4DF808EDFFF7C4FF9B
:100B300034BF012000205DF808FB00BF4FEA410CE4
:100B40007FEA6C5C02D150EA013C0AD14FEA430CC7
:100B50007FEA6C5C02D152EA033C02D14FF0000004
:100B600070474FF0010070474FEA410212F5001242
:100B700015D211D56FF47873B3EB625212D94FEAE4
:100B8000C12343F0004343EA505311F0004F23FACE
:100B900002F018BF404270474FF00000704750EA23
:100BA000013005D111F0004008BF6FF000407047E0
:100BB0004FF00000704700BF4FEA4102B2F1E0433E
:100BC00024BFB3F5001CDCF1FE5C0DD901F0004C34
:100BD0004FEAC0024CEA5070B2F1004F40EB830084
:100BE00008BF20F00100704711F0804F21D113F1B0
:100BF0003872BCBF01F00040704741F480114FEAE9
:100C00005252C2F11802C2F1200C10FA0CF320FA71
:100C100002F018BF40F001004FEAC1234FEAD3238E
:100C200003FA0CFC40EA0C0023FA02F34FEA4303F8
:100C3000CCE77FEA625307D150EA01331EBF4FF081
:100C4000FE4040F44000704701F0004040F0FE409C
:100C500040F40000704700BF53B94AB9002908BFEB
:100C600000281CBF4FF0FF314FF0FF3000F070B98B
:100C7000ADF1080C6DE904CE00F006F8DDF804E0F3
:100C8000DDE9022304B070472DE9F047089E0D46C8
:100C900004460F46002B4AD18A42944665D9B2FADF
:100CA00082F343B102FA03FCC3F120029F4020FA11
:100CB00002F217439C404FEA1C4E1FFA8CF5B7FB1B
:100CC000FEF1220C0EFB117742EA074201FB05F010
:100CD00090420AD91CEB020201F1FF3780F01C811F
:100CE000904240F2198102396244121AA4B2B2FB56
:100CF000FEF00EFB102244EA024400FB05F5A5427B
:100D00000AD91CEB040400F1FF3280F00781A542F0
:100D100040F204816444023840EA0140641B00212F
:100D20001EB1DC400023C6E90043BDE8F0878B42DA
:100D300008D9002E00F0ED800021C6E90005084624
:100D4000BDE8F087B3FA83F1002949D1AB4202D361
:100D5000824200F2F880841A65EB030201201746F4
:100D6000002EE2D0C6E90047DFE702B9FFDEB2FAA3
:100D700082F3002B40F090808A1A4FEA1C471FFA3A
:100D80008CFE0121B2FBF7F507FB1520220C42EA8D
:100D900000420EFB05F0904208D91CEB020205F15F
:100DA000FF3802D2904200F2CB804546121AA4B21C
:100DB000B2FBF7F007FB102244EA02440EFB00FEF0
:100DC000A64508D91CEB040400F1FF3202D2A64567
:100DD00000F2BB801046A4EB0E0440EA05409FE7FA
:100DE000C1F120078B4022FA07FC4CEA030C05FAFC
:100DF00001F420FA07F3FD404FEA1C492343B5FBF9
:100E0000F9F81FFA8CFE09FB18551C0C44EA05443E
:100E100008FB0EF5A54202FA01F200FA01F00BD927
:100E20001CEB040408F1FF3A80F08880A54240F2F0
:100E30008580A8F102086444641B9DB2B4FBF9F3F9
:100E400009FB134445EA044403FB0EFEA64508D9FA
:100E50001CEB040403F1FF356CD2A6456AD9023BB2
:100E6000644443EA0843A3FB0295A4EB0E04AC429E
:100E7000C846AE4656D353D056B1B0EB080264EB29
:100E80000E0404FA07F7CA40CC401743C6E90074C1
:100E900018460021BDE8F087C3F1200102FA03FCE7
:100EA00020FA01F225FA01F19D402A434FEA1C473E
:100EB0001FFA8CFEB1FBF7F007FB1015110C41EA8D
:100EC000054100FB0EF58D4204FA03F408D91CEB32
:100ED000010100F1FF382FD28D422DD90238614433
:100EE000491B92B2B1FBF7F507FB151142EA01422B
:100EF00005FB0EF1914208D91CEB020205F1FF3807
:100F000016D2914214D9023D6244521A45EA004178
:100F100038E73146304608E73946E6E61046FBE654
:100F20004845A9D2B9EB020865EB0C0E013BA3E7DB
:100F30004546EAE72B4694E74046D1E7D0467BE7B3
:100F4000023D624432E708460AE76444023842E759
:100F5000704700BF000000002DE9B0438CB000AF27
:100F6000786039605B4B00221A600023FB6204E06A
:100F7000584B1B680133574A1360564B1B681A467F
:100F80007B6813441B782C2BF2D1524B1B68013326
:100F9000504A136004E04F4B1B6801334D4A136005
:100FA0004C4B1B681A467B6813441B782C2BF2D1E0
:100FB000484B1B680133474A136004E0454B1B68EC
:100FC0000133444A1360434B1B681A467B68134441
:100FD0001B782C2BF2D13F4B1B6801333D4A136029
:100FE00004E03C4B1B6801333A4A1360394B1B68E1
:100FF0001A467B6813441B782C2BF2D1354B1B68A7
:101000000133344A136004E0324B1B680133314A28
:101010001360304B1B681A467B6813441B782C2BDB
:10102000F2D12C4B1B6801332A4A136004E0294B90
:101030001B680133274A1360264B1B681A467B68DE
:1010400013441B782C2BF2D1224B1B680133214A0D
:101050001360204B1B681A467B6813441B78312BA6
:101060000FD01C4B1B681A467B6813441B78322B2D
:1010700007D0184B1B681A467B6813441B78362B25
:1010800006D13B680122DA61124B00221A6009E0A6
:101090003B680022DA610123FDE20E4B1B6801333D
:1010A0000C4A13600B4B1B681A467B6813441B7871
:1010B0002C2BF2D1074B1B680133064A136007F152
:1010C0000C030C220021184603F0B1FC0023FB6244
:1010D00016E000BF0C020020AB4B1B681A467B6871
:1010E0001344197807F10C02FB6A13440A461A707C
:1010F000FB6A0133FB62A44B1B680133A24A1360F5
:10110000A14B1B681A467B6813441B782C2BE3D138
:1011100007F10C03184602F06FFE03469B4A82FB60
:1011200003121213DB17D21A994B1B68994981FBE2
:1011300003014911DB17CB1A1344974A136007F1D7
:101140000C03184602F058FE0346924A82FB031233
:101150005211DB17D31A8F4A82FB03125111DA178F
:101160008A1A642101FB02F29A1A894B1968894B89
:1011700083FB01035811CB17C31A642000FB03F350
:10118000CB1A1344854A1360844B1B683B2B09DD43
:10119000824B1B683C3B814A13607F4B1B680133C9
:1011A0007D4A13607C4B1B68002B09DA7A4B1B6865
:1011B0001833794A13607A4B1B68013B784A1360F5
:1011C000754B1B68172B09DD734B1B68183B724A64
:1011D0001360734B1B680133714A13606E4B1A68BE
:1011E0003B681A616D4B1A683B685A6107F10C0342
:1011F000184602F001FE0246664B83FB02135911AA
:10120000D317CB1A642101FB03F3D31A3A68936115
:101210005D4B1B6801335C4A136007F10C030C2221
:101220000021184603F003FC0023FB6213E0564B39
:101230001B681A467B681344197807F10C02FB6A95
:1012400013440A461A70FB6A0133FB624E4B1B685B
:1012500001334D4A13604C4B1B681A467B6813449C
:101260001B782C2BE3D107F10C031846FFF708F885
:101270000346052B01D802230DE207F10C031846A3
:1012800002F0BAFD0346FB840023BB6202E0BB6AA6
:101290000133BB6207F10C02BB6A13441B782E2B8F
:1012A000F5D1BB6A0133BB6207F10C031846FEF7A8
:1012B000E7FF0246BB6AD31A3B62BB6A07F10C0226
:1012C0001344184602F098FDF861B7F92630184625
:1012D000FFF730F94FF00002324BFFF7BFFA02463A
:1012E0000B4690469946F869FFF724F904460D46E7
:1012F0003B6A02331846FFF71DF902460B4643ECE2
:10130000112B9FED1F0B05F08BFC53EC102B20468F
:101310002946FFF7A3FA02460B4640464946FEF728
:10132000BDFF02460B4610461946FFF745FC034633
:10133000BB613B68BA691A60134B1B680133124AE0
:101340001360114B1B681A467B6813441A783B687C
:101350001A710D4B1B6801330B4A13600A4B1B6853
:101360000133094A136007F10C030C2200211846CF
:1013700003F05DFB0023FB622AE000BFAFF30080B7
:1013800000000000000024400C020020AD8BDB6850
:10139000000000201F85EB511002002014020020E5
:1013A00024020020000059408B4B1B681A467B68C2
:1013B0001344197807F10C02FB6A13440A461A70A9
:1013C000FB6A0133FB62844B1B680133824A136062
:1013D000814B1B681A467B6813441B782C2BE3D186
:1013E00007F10C03184602F007FD0346FB840023B7
:1013F000BB6202E0BB6A0133BB6207F10C02BB6A4D
:1014000013441B782E2BF5D1BB6A0133BB6207F165
:101410000C031846FEF734FF0246BB6AD31A3B6240
:10142000BB6A07F10C021344184602F0E5FCF861B0
:10143000B7F926301846FFF77DF84FF00002674BEA
:10144000FFF70CFA02460B4690469946F869FFF7FB
:1014500071F804460D463B6A02331846FFF76AF8F6
:1014600002460B4643EC112B9FED590B05F0D8FBC0
:1014700053EC102B20462946FFF7F0F902460B46A5
:1014800040464946FEF70AFF02460B4610461946FB
:10149000FFF792FB0346BB613B68BA699A604E4B0B
:1014A0001B6801334C4A13604B4B1B681A467B6820
:1014B00013441A783B681A73474B1B680133464A3A
:1014C0001360454B1B680133434A1360424B1B6852
:1014D0000133414A1360404B1B6801333E4A13609D
:1014E00007F10C030C220021184603F0A0FA002398
:1014F000FB6213E0384B1B681A467B68134419786B
:1015000007F10C02FB6A13440A461A70FB6A0133A6
:10151000FB62314B1B6801332F4A13602E4B1B6853
:101520001A467B6813441B782C2BE3D107F10C037C
:10153000184602F061FC02463B689A62264B1B6823
:101540000133254A136004E0234B1B680133224A10
:101550001360214B1B681A467B6813441B782C2BA5
:10156000F2D11D4B1B6801331B4A136007F10C03BA
:101570000C220021184603F05AFA0023FB6213E004
:10158000154B1B681A467B681344197807F10C0247
:10159000FB6A13440A461A70FB6A0133FB620E4B66
:1015A0001B6801330C4A13600B4B1B681A467B689F
:1015B00013441B782C2BE3D107F10C03184602F0DF
:1015C0001BFC0346FB840023BB620CE0AFF30080EE
:1015D00000000000000024400C02002000005940E0
:1015E000BB6A0133BB6207F10C02BB6A13441B7870
:1015F0002E2BF5D1BB6A0133BB6207F10C031846F1
:10160000FEF73EFE0246BB6AD31A3B62BB6A07F195
:101610000C021344184602F0EFFBF861B7F92630CC
:101620001846FEF787FF04460D46F869FEF782FF6D
:1016300080468946386AFEF77DFF02460B4643EC3A
:10164000112B9FED170B05F0EBFA53EC102B4046D6
:101650004946FFF703F902460B4620462946FEF7A6
:101660001DFE02460B4610461946FFF7A5FA034633
:10167000BB613B68BA691A620B4B1B6801330A4AAB
:101680001360094B1B681A467B6813441A783B6841
:1016900083F82420002318463037BD46BDE8B083C8
:1016A00000000000000024400C02002000000000A8
:1016B0002DE9B04390B000AF78603960944B0022C0
:1016C0001A600023FB6304E0914B1B680133904ACE
:1016D00013608F4B1B681A467B6813441B782C2BB6
:1016E000F2D18B4B1B680133894A136004E0884BAD
:1016F0001B680133864A1360854B1B681A467B685A
:1017000013441B782C2BF2D1814B1B680133804A88
:1017100013607F4B1B681A467B6813441B78412B70
:101720000DD13B6801225A61794B1B680133784A1D
:101730001360774B1B680133754A136009E03B68FF
:1017400000225A610123D8E1714B1B680133704AB2
:1017500013606F4B1B681A467B6813441B782C2B55
:10176000F2D16B4B1B680133694A136004E0684B8C
:101770001B680133664A1360654B1B681A467B6819
:1017800013441B782C2BF2D1614B1B680133604A48
:10179000136004E05E4B1B6801335D4A13605C4BD1
:1017A0001B681A467B6813441B782C2BF2D1584BCC
:1017B0001B680133564A136004E0554B1B68013324
:1017C000534A1360524B1B681A467B6813441B78BC
:1017D0002C2BF2D14E4B1B6801334D4A1360002372
:1017E000FB6307F108030C220021184603F01FF9E0
:1017F00013E0474B1B681A467B681344197807F1BE
:101800000802FB6B13440A461A70FB6B0133FB633F
:101810003F4B1B6801333E4A13603D4B1B681A4621
:101820007B6813441B782C2BE3D107F108031B784A
:10183000002B56D007F10803184602F0DDFA0346E4
:101840007B860023BB6302E0BB6B0133BB6307F104
:101850000802BB6B13441B782E2BF5D1BB6B0133F5
:10186000BB6307F108031846FEF70AFD0246BB6B8F
:10187000D31AFB62BB6B07F108021344184602F04F
:10188000BBFAB862B7F932301846FEF753FE044689
:101890000D46B86AFEF74EFE80468946F86AFEF7A6
:1018A00049FE02460B4643EC112B9FED170B05F04A
:1018B000B7F953EC102B40464946FEF7CFFF0246DE
:1018C0000B4620462946FEF7E9FC02460B46104629
:1018D0001946FFF771F903467B623B687A6ADA6062
:1018E00003E03B684FF00002DA60094B1B680133EC
:1018F000074A13600023FB6307F108030C22002151
:10190000184603F094F819E000000000000024409D
:101910000C0200207E4B1B681A467B681344197822
:1019200007F10802FB6B13440A461A70FB6B013384
:10193000FB63774B1B680133754A1360744B1B685C
:101940001A467B6813441B782C2BE3D107F108035C
:101950001B78002B56D007F10803184602F04CFA0A
:1019600003467B8400237B6302E07B6B01337B6354
:1019700007F108027B6B13441B782E2BF5D17B6B90
:1019800001337B6307F108031846FEF779FC024632
:101990007B6BD31AFB617B6B07F10802134418467B
:1019A00002F02AFAB861B7F922301846FEF7C2FDF4
:1019B00004460D46B869FEF7BDFD80468946F869C4
:1019C000FEF7B8FD02460B4643EC112B9FED4E0B84
:1019D00005F026F953EC102B40464946FEF73EFF32
:1019E00002460B4620462946FEF758FC02460B46A7
:1019F00010461946FFF7E0F803467B613B687A69B9
:101A00001A6103E03B684FF000021A61404B1B680B
:101A100001333F4A13600023FB6307F108030C22E4
:101A20000021184603F003F813E0394B1B681A46EF
:101A30007B681344197807F10802FB6B13440A46CC
:101A40001A70FB6B0133FB63314B1B680133304A67
:101A500013602F4B1B681A467B6813441B782C2B92
:101A6000E3D107F10803184602F0C6F90346294AF4
:101A700082FB03121213DB17D31A274A136007F1F4
:101A80000803184602F0B8F90346244A82FB031201
:101A90005211DB17D21A214B83FB02135911D317B2
:101AA000CB1A642101FB03F3D31A1D4A136007F11B
:101AB0000803184602F0A0F90246184B83FB0213F4
:101AC0005911D317CB1A642101FB03F3D31A154A1A
:101AD0001360114B1A68144B1B6813440E4A1360B1
:101AE0000D4B1A683B681A600D4B1A683B685A60C8
:101AF0000C4B1A683B689A60002318464037BD4675
:101B0000BDE8B083AFF30080000000000000244077
:101B10000C020020AD8BDB68180200201F85EB5102
:101B20001C020020200200202402002080B400AF0C
:101B30000D4B0E4A1A600E4B0E4A1A600E4B1B6874
:101B40005A690D4B1B6842F001025A610A4B1B682F
:101B5000DA68094B1B6842F02002DA6000BFBD461C
:101B60005DF8047B704700BF3C0600202C0200207B
:101B700040060020340400208C06002080B485B08C
:101B800000AF03463960FB713B68D3F80032013384
:101B9000C3F30803FB603B68D3F80422FB689A4256
:101BA00009D03B68D3F800323A68F979D154FA6821
:101BB0003B68C3F8002200BF1437BD465DF8047BC4
:101BC0007047000080B483B000AF134B1B68D3F89C
:101BD0000022114B1B68D3F804329A4202D14FF015
:101BE000FF3313E00C4B1A680B4B1B68D3F804321D
:101BF000D35CFB71084B1B68D3F804325A1C064BAC
:101C00001B68C2F30802C3F80422FB7918460C379C
:101C1000BD465DF8047B70473C06002080B400AFF1
:101C20000A4B1B68D3F800329AB2084B1B68D3F8F2
:101C300004329BB2D31A9BB203F500739BB2C3F379
:101C400008031846BD465DF8047B70473C0600203B
:101C500080B400AF0C4B1B68D3F800220A4B1B6802
:101C6000D3F804329A4202D14FF0FF3306E0064B1C
:101C70001A68054B1B68D3F80432D35C1846BD467E
:101C80005DF8047B704700BF3C06002080B586B03D
:101C900000AF7860396000237B617868FEF7F0FA66
:101CA0000346FB6000233B611EE0364B1968354B51
:101CB0001B68D3F804223B69386803448A5C1A70B5
:101CC000304B1B68D3F804325A1C2E4B1B68C2F3EE
:101CD0000802C3F804223B6901333B6100BFFFF7F0
:101CE0009DFF0346002BFAD0FFF7B2FF01467B6948
:101CF0007A6813441B789942D7D127E07B69013376
:101D00007B61FFF75FFF01463B695A1C3A611A4647
:101D10003B681344CAB21A707A69FB689A4201D1CF
:101D200001232AE0184B4FF4FA721A8000BFFFF724
:101D300075FF0346002B03D1134B1B88002BF6D1F4
:101D4000114B1B88002B01D1002316E0FFF780FF09
:101D500001467B697A6813441B789942CED07A6930
:101D6000FB689A4202D000237B619DE77A69FB6899
:101D70009A4201D1012300E0002318461837BD46DE
:101D800080BD00BF3C0600202802002080B584B042
:101D900000AF78600023FB607868FEF771FA0346B5
:101DA000BB603C4B4FF4FA721A8000BFFFF736FF5E
:101DB0000346002B03D1374B1B88002BF6D1354B44
:101DC0001B88002B19D1002360E0334B1B68D3F82C
:101DD0000422314B1B68D3F800329A420BD02E4BB1
:101DE0001B68D3F804325A1C2B4B1B68C2F3080241
:101DF000C3F8042201E0002348E0FFF729FF014671
:101E0000FB687A6813441B789942DED127E0FB68AF
:101E10000133FB60204B1B68D3F804325A1C1E4B65
:101E20001B68C2F30802C3F80422FA68BB689A422E
:101E300001D101232AE0174B4FF4FA721A8000BF38
:101E4000FFF7ECFE0346002B03D1124B1B88002B3F
:101E5000F6D1104B1B88002B01D1002316E0FFF7B1
:101E6000F7FE0146FB687A6813441B789942CED08E
:101E7000FA68BB689A4202D00023FB6091E7FA68D7
:101E8000BB689A4201D1012300E0002318461037B5
:101E9000BD4680BD280200203C06002080B586B0EB
:101EA00000AF78607B681B681B687B617B681B6880
:101EB000DB683B617B6903F02003002B13D03B6997
:101EC00003F02003002B0ED07B681B681B687B6827
:101ED0001B685B68FB731E4B1A68FB7B1146184638
:101EE000FFF74CFE31E07B6903F08003002B2CD020
:101EF0003B6903F08003002B27D0164BD3F8002258
:101F0000144BD3F804329A4208D17B681B68DA6814
:101F10007B681B6822F08002DA6015E00D4BD3F875
:101F200004320C4AD35CBB730A4BD3F8043201333E
:101F3000C3F30803074AC2F804327B681B681B68B6
:101F40007B681B68BA7B5A6000BF1837BD4680BDEE
:101F50003C06002034040020F0B587B006AF00F046
:101F6000C5FB00F0E3F800F095F900F03FF900F050
:101F700067F9FFF7DBFD5C48FFF708FF0346012B1D
:101F800015D15A4B41F288321A6059495948FFF726
:101F90007DFE59495648FEF7DFFF0346002B03D16B
:101FA000564B02221A6002E0544B01221A60544838
:101FB000FFF7ECFE0346012B15D14C4B41F2883262
:101FC0001A6050494B48FFF761FE4F494D48FFF7F3
:101FD0006FFB0346002B03D14C4B02221A6002E038
:101FE0004A4B01221A60454B1B68022B0CBF012390
:101FF0000023DAB2454B1B68022B0CBF01230023E0
:10200000DBB21343DBB2002B3FD03B4B1C693A4B96
:102010005D69394B9B69384AD26A3749096B364842
:10202000406B03900291019200932B46224638495F
:10203000384802F099FC304B1B681846FEF78CFAC2
:1020400004460D462C4B1B791E462B4B9B681846AD
:10205000FEF782FA02460B462749097B0491CDE937
:102060000223009622462B462B492C4802F07CFC8A
:102070006423322227492A4801F002FB64233222DA
:102080002649274801F0FCFA17E01C4B1B68012B7E
:102090000CBF01230023DAB21C4B1B68012B0CBFC1
:1020A00001230023DBB21343DBB2002B05D06423F2
:1020B00064221C491A4801F0E3FA0C4B1B68002B00
:1020C0003FF759AF094B41F288321A600F4B00229B
:1020D0001A600E4B1B68094A13606423642212497C
:1020E0000F4801F0CDFA46E7A87A00080400002066
:1020F00088070020AC7A0008D406002018070020CA
:10210000B07A0008EC070020000700201C07002020
:10211000B47A000820070020D47A00085407002071
:1021200044060020E87A0008187B000880B594B0C7
:1021300000AF07F1200330220021184602F077FC9F
:1021400007F10C0300221A605A609A60DA601A6183
:102150000023BB60234B1B6C224A43F08053136463
:10216000204B1B6C03F08053BB60BB6800237B607B
:102170001D4B1B6823F440431B4A43F40043136088
:10218000194B1B6803F440437B607B6802233B626E
:102190000123FB6210233B630023BB6307F1200391
:1021A000184600F0C5FD0346002B01D000F0B6F83C
:1021B0000F23FB6000233B6100237B610023BB6195
:1021C0000023FB6107F10C030021184601F028F8F9
:1021D0000346002B01D000F0A1F800BF5037BD46E8
:1021E00080BD00BF003802400070004080B500AFE5
:1021F000114B124A1A60104B4FF4E1325A600E4BE9
:1022000000229A600C4B0022DA600B4B00221A610C
:10221000094B0C225A61084B00229A61064B00229E
:10222000DA61054801F0DCF90346002B01D000F02B
:1022300075F800BF80BD00BF4406002000100140BB
:1022400080B500AF114B124A1A60104B4FF4E132C7
:102250005A600E4B00229A600C4B0022DA600B4B46
:1022600000221A61094B0C225A61084B00229A6124
:10227000064B0022DA61054801F0B2F90346002B53
:1022800001D000F04BF800BF80BD00BF8C060020DD
:102290000044004080B588B000AF07F10C03002275
:1022A0001A605A609A60DA601A610023BB60194BA9
:1022B0001B6B184A43F004031363164B1B6B03F0AC
:1022C0000403BB60BB6800237B60124B1B6B114A8D
:1022D00043F0010313630F4B1B6B03F001037B609F
:1022E0007B6800224FF400510B4800F007FD4FF4CB
:1022F0000053FB6001233B6100237B610023BB6132
:1023000007F10C031946044800F074FB00BF2037A6
:10231000BD4680BD003802400008024080B400AFD6
:1023200072B600BFFEE7000080B483B000AF0023A8
:102330007B60104B5B6C0F4A43F4804353640D4B3E
:102340005B6C03F480437B607B6800233B60094B3C
:102350001B6C084A43F080531364064B1B6C03F05C
:1023600080533B603B6800BF0C37BD465DF8047B83
:10237000704700BF0038024080B58CB000AF786075
:1023800007F11C0300221A605A609A60DA601A6131
:102390007B681B68364A93422DD10023BB61354BC5
:1023A0005B6C344A43F010035364324B5B6C03F0B4
:1023B0001003BB61BB6900237B612E4B1B6B2D4A55
:1023C00043F0010313632B4B1B6B03F001037B6191
:1023D0007B694FF4C063FB6102233B6200237B6295
:1023E0000323BB620723FB6207F11C031946224843
:1023F00000F000FB38E07B681B68204A934233D131
:1024000000233B611B4B1B6C1A4A43F400331364DB
:10241000184B1B6C03F400333B613B690023FB60EA
:10242000144B1B6B134A43F001031363114B1B6BDB
:1024300003F00103FB60FB680C23FB6102233B629A
:1024400000237B620323BB620723FB6207F11C03AB
:102450001946094800F0CEFA00220021262000F09B
:1024600092FA262000F0ABFA00BF3037BD4680BD9F
:1024700000100140003802400000024000440040CB
:1024800080B400AFFEE780B400AFFEE780B400AFD9
:10249000FEE780B400AFFEE780B400AFFEE780B493
:1024A00000AF00BFBD465DF8047B704780B400AF4D
:1024B00000BFBD465DF8047B704780B400AF00BF2D
:1024C000BD465DF8047B704780B500AF00F060F951
:1024D00000BF80BD80B500AF0248FFF7DFFC00BF42
:1024E00080BD00BF8C06002080B400AF01231846D9
:1024F000BD465DF8047B704780B582B000AF786060
:10250000396002F0E7FA034616221A604FF0FF33F3
:1025100018460837BD4680BD80B582B000AF7860F0
:102520004FF0FF317868FFF7E7FFFEE780B586B030
:1025300000AFF860B9607A6000237B610AE0AFF316
:1025400000800146BB685A1CBA60CAB21A707B6927
:1025500001337B617A697B689A42F0DB7B681846BD
:102560001837BD4680BD80B586B000AFF860B96051
:102570007A6000237B6109E0BB685A1CBA601B7853
:102580001846AFF300807B6901337B617A697B6811
:102590009A42F1DB7B6818461837BD4680BD80B48F
:1025A00083B000AF78604FF0FF3318460C37BD465C
:1025B0005DF8047B704780B483B000AF7860396009
:1025C0003B684FF400525A60002318460C37BD4652
:1025D0005DF8047B704780B483B000AF786001235E
:1025E00018460C37BD465DF8047B704780B485B053
:1025F00000AFF860B9607A60002318461437BD4612
:102600005DF8047B7047000080B586B000AF78604D
:10261000144A154BD31A7B617B693B61134B1B68D2
:10262000002B02D1114B124A1A60104B1A687B68BA
:1026300013443A699A4207D202F04CFA03460C223C
:102640001A604FF0FF3309E0084B1B68FB60074B33
:102650001A687B681344054A1360FB6818461837EC
:10266000BD4680BD0000012000040000500800208D
:10267000A809002080B400AF064BD3F88830054A83
:1026800043F47003C2F8883000BFBD465DF8047B98
:10269000704700BF00ED00E0DFF834D0FFF7EAFF3D
:1026A0000C480D490D4A002302E0D458C4500433AD
:1026B000C4188C42F9D30A4A0A4C002301E0136083
:1026C0000432A242FBD302F00BFAFFF745FC70473D
:1026D0000000012000000020F0010020107F000811
:1026E000F0010020A4090020FEE7000080B500AF43
:1026F0000E4B1B680D4A43F4007313600B4B1B68B1
:102700000A4A43F480631360084B1B68074A43F48A
:1027100080731360032000F02BF90F2000F008F8FD
:10272000FFF702FE0023184680BD00BF003C0240B8
:1027300080B582B000AF7860124B1A68124B1B78DC
:1027400019464FF47A73B3FBF1F3B2FBF3F3184677
:1027500000F043F90346002B01D001230EE07B6813
:102760000F2B0AD8002279684FF0FF3000F00BF9E8
:10277000064A7B681360002300E0012318460837EF
:10278000BD4680BD08000020100000200C00002085
:1027900080B400AF064B1B781A46064B1B681344E7
:1027A000044A136000BFBD465DF8047B704700BF5C
:1027B000100000205408002080B400AF034B1B68B9
:1027C0001846BD465DF8047B704700BF54080020E2
:1027D00080B485B000AF78607B6803F00703FB60CE
:1027E0000C4BDB68BB60BA684FF6FF031340BB605D
:1027F000FB681A02BB68134343F0BF6343F4003322
:10280000BB60044ABB68D36000BF1437BD465DF8A7
:10281000047B704700ED00E080B400AF044BDB6840
:102820001B0A03F007031846BD465DF8047B70479A
:1028300000ED00E080B483B000AF0346FB7197F970
:102840000730002B0BDBFB7903F01F02074997F9D8
:1028500007305B09012000FA02F241F8232000BF93
:102860000C37BD465DF8047B704700BF00E100E017
:1028700080B483B000AF03463960FB7197F907302D
:10288000002B0ADB3B68DAB20C4997F907301201DA
:10289000D2B20B4483F800230AE03B68DAB208495D
:1028A000FB7903F00F03043B1201D2B20B441A76FA
:1028B00000BF0C37BD465DF8047B704700E100E0C7
:1028C00000ED00E080B489B000AFF860B9607A60D4
:1028D000FB6803F00703FB61FB69C3F10703042BEB
:1028E00028BF0423BB61FB690433062B02D9FB69B3
:1028F000033B00E000237B614FF0FF32BB6902FA2B
:1029000003F3DA43BB681A407B699A404FF0FF310A
:102910007B6901FA03F3D9437B680B4013431846E4
:102920002437BD465DF8047B7047000080B582B057
:1029300000AF78607B68013BB3F1807F01D3012356
:102940000FE00A4A7B68013B53600F214FF0FF30D4
:10295000FFF78EFF054B00229A60044B07221A6096
:10296000002318460837BD4680BD00BF10E000E0D8
:1029700080B582B000AF78607868FFF729FF00BFAC
:102980000837BD4680BD80B586B000AF0346B9604C
:102990007A60FB7300237B61FFF73EFF78617A6802
:1029A000B9687869FFF78EFF024697F90F30114634
:1029B0001846FFF75DFF00BF1837BD4680BD80B5E4
:1029C00082B000AF0346FB7197F907301846FFF756
:1029D00031FF00BF0837BD4680BD80B582B000AF73
:1029E00078607868FFF7A2FF034618460837BD46AF
:1029F00080BD000080B489B000AF786039600023EA
:102A00007B6100233B610023BB610023FB6159E133
:102A10000122FB6902FA03F37B613B681B687A6958
:102A200013403B613A697B699A4240F048813B68B8
:102A30005B6803F00303012B05D03B685B6803F080
:102A40000303022B30D17B689B68BB61FB695B0091
:102A5000032202FA03F3DB43BA691340BB613B680C
:102A6000DA68FB695B0002FA03F3BA691343BB61DE
:102A70007B68BA699A607B685B68BB610122FB690D
:102A800002FA03F3DB43BA691340BB613B685B683E
:102A90001B0903F00102FB6902FA03F3BA6913434D
:102AA000BB617B68BA695A603B685B6803F00303EB
:102AB000032B17D07B68DB68BB61FB695B000322DB
:102AC00002FA03F3DB43BA691340BB613B689A68BF
:102AD000FB695B0002FA03F3BA691343BB617B68CD
:102AE000BA69DA603B685B6803F00303022B23D109
:102AF000FB69DA087B68083253F82230BB61FB6956
:102B000003F007039B000F2202FA03F3DB43BA69C9
:102B10001340BB613B681A69FB6903F007039B0024
:102B200002FA03F3BA691343BB61FB69DA087B68F5
:102B30000832B96943F822107B681B68BB61FB69E6
:102B40005B00032202FA03F3DB43BA691340BB6163
:102B50003B685B6803F00302FB695B0002FA03F366
:102B6000BA691343BB617B68BA691A603B685B68EA
:102B700003F44033002B00F0A2800023FB60574B8E
:102B80005B6C564A43F480435364544B5B6C03F4D0
:102B90008043FB60FB68524AFB699B08023352F892
:102BA0002330BB61FB6903F003039B000F2202FA91
:102BB00003F3DB43BA691340BB617B68494A934224
:102BC00019D07B68484A934213D07B68474A9342A6
:102BD0000DD07B68464A934207D07B68454A9342B2
:102BE00001D1042308E0072306E0032304E00223C5
:102BF00002E0012300E00023FA6902F003029200E0
:102C00009340BA691343BB613549FB699B080233A2
:102C1000BA6941F82320384B9B68BB613B69DB43B1
:102C2000BA691340BB613B685B6803F48013002BF7
:102C300003D0BA693B691343BB612F4ABB699360F8
:102C40002D4BDB68BB613B69DB43BA691340BB6159
:102C50003B685B6803F40013002B03D0BA693B693F
:102C60001343BB61244ABB69D360234B5B68BB61E0
:102C70003B69DB43BA691340BB613B685B6803F4A3
:102C80000033002B03D0BA693B691343BB611A4A76
:102C9000BB695360184B1B68BB613B69DB43BA6976
:102CA0001340BB613B685B6803F48033002B03D0A7
:102CB000BA693B691343BB610F4ABB691360FB6987
:102CC0000133FB61FB690F2B7FF6A2AE00BF00BF93
:102CD0002437BD465DF8047B704700BF00380240D2
:102CE0000038014000000240000402400008024099
:102CF000000C024000100240003C014080B483B050
:102D000000AF78600B467B8013467B707B78002B8E
:102D100003D07A887B689A6103E07B881A047B6819
:102D20009A6100BF0C37BD465DF8047B7047000018
:102D300080B586B000AF78607B68002B01D101239D
:102D400067E27B681B6803F00103002B75D0884B9A
:102D50009B6803F00C03042B0CD0854B9B6803F09D
:102D60000C03082B12D1824B5B6803F48003B3F58C
:102D7000800F0BD17E4B1B6803F40033002B5BD01C
:102D80007B685B68002B57D1012342E27B685B685C
:102D9000B3F5803F06D1764B1B68754A43F4803308
:102DA00013601DE07B685B68B3F5A02F0CD1704BFE
:102DB0001B686F4A43F4802313606D4B1B686C4A99
:102DC00043F4803313600BE0694B1B68684A23F4BB
:102DD00080331360664B1B68654A23F480231360BD
:102DE0007B685B68002B13D0FFF7E6FC386108E0D6
:102DF000FFF7E2FC02463B69D31A642B01D9032397
:102E000007E25B4B1B6803F40033002BF0D014E0A7
:102E1000FFF7D2FC386108E0FFF7CEFC02463B69C1
:102E2000D31A642B01D90323F3E1514B1B6803F43C
:102E30000033002BF0D100E000BF7B681B6803F07B
:102E40000203002B63D04A4B9B6803F00C03002B5A
:102E50000BD0474B9B6803F00C03082B1CD1444B51
:102E60005B6803F48003002B16D1414B1B6803F011
:102E70000203002B05D07B68DB68012B01D0012306
:102E8000C7E13B4B1B6823F0F8027B681B69DB0042
:102E9000374913430B603AE07B68DB68002B20D096
:102EA000344B01221A60FFF787FC386108E0FFF716
:102EB00083FC02463B69D31A022B01D90323A8E104
:102EC0002B4B1B6803F00203002BF0D0284B1B6830
:102ED00023F0F8027B681B69DB00254913430B6074
:102EE00015E0244B00221A60FFF766FC386108E009
:102EF000FFF762FC02463B69D31A022B01D9032378
:102F000087E11B4B1B6803F00203002BF0D17B68A9
:102F10001B6803F00803002B36D07B685B69002B2D
:102F200016D0154B01221A60FFF746FC386108E005
:102F3000FFF742FC02463B69D31A022B01D9032357
:102F400067E10B4B5B6F03F00203002BF0D01BE03B
:102F5000094B00221A60FFF72FFC38610EE0FFF7E3
:102F60002BFC02463B69D31A022B07D9032350E1FD
:102F70000038024000004742800E4742884B5B6F9A
:102F800003F00203002BEAD17B681B6803F0040303
:102F9000002B00F097800023FB75814B1B6C03F026
:102FA0008053002B0FD10023BB607D4B1B6C7C4AF0
:102FB00043F0805313647A4B1B6C03F08053BB6067
:102FC000BB680123FB75774B1B6803F48073002BF0
:102FD00018D1744B1B68734A43F480731360FFF776
:102FE000EBFB386108E0FFF7E7FB02463B69D31AC9
:102FF000022B01D903230CE16A4B1B6803F4807395
:10300000002BF0D07B689B68012B06D1644B1B6FB3
:10301000634A43F0010313671CE07B689B68052B40
:103020000CD15F4B1B6F5E4A43F0040313675C4B8C
:103030001B6F5B4A43F0010313670BE0584B1B6F98
:10304000574A23F001031367554B1B6F544A23F073
:10305000040313677B689B68002B15D0FFF7ACFB5C
:1030600038610AE0FFF7A8FB02463B69D31A41F238
:103070008832934201D90323CBE0494B1B6F03F005
:103080000203002BEED014E0FFF796FB38610AE054
:10309000FFF792FB02463B69D31A41F28832934212
:1030A00001D90323B5E03E4B1B6F03F00203002B55
:1030B000EED1FB7D012B05D1394B1B6C384A23F037
:1030C000805313647B689B69002B00F0A180344B14
:1030D0009B6803F00C03082B5CD07B689B69022B78
:1030E00041D1314B00221A60FFF766FB386108E0DE
:1030F000FFF762FB02463B69D31A022B01D9032377
:1031000087E0274B1B6803F00073002BF0D17B682E
:10311000DA697B681B6A1A437B685B6A9B011A4306
:103120007B689B6A5B08013B1B041A437B68DB6A74
:103130001B061B4913434B601B4B01221A60FFF710
:103140003BFB386108E0FFF737FB02463B69D31AC7
:10315000022B01D903235CE0114B1B6803F00073C1
:10316000002BF0D054E0104B00221A60FFF724FB34
:10317000386108E0FFF720FB02463B69D31A022BB7
:1031800001D9032345E0064B1B6803F00073002BB5
:10319000F0D13DE07B689B69012B07D1012338E02A
:1031A0000038024000700040600047421B4B5B68E3
:1031B000FB607B689B69012B28D0FB6803F48002CD
:1031C0007B68DB699A4221D1FB6803F03F027B6890
:1031D0001B6A9A421AD1FA6847F6C07313407A689C
:1031E000526A9201934211D1FB6803F440327B682A
:1031F0009B6A5B08013B1B049A4207D1FB6803F002
:1032000070627B68DB6A1B069A4201D0012300E0F2
:10321000002318461837BD4680BD00BF0038024065
:1032200080B584B000AF786039607B68002B01D135
:103230000123CCE0684B1B6803F007033A689A420D
:103240000CD9654B3A68D2B21A70634B1B6803F015
:1032500007033A689A4201D00123B8E07B681B68F3
:1032600003F00203002B20D07B681B6803F00403EB
:10327000002B05D0594B9B68584A43F4E0539360A8
:103280007B681B6803F00803002B05D0534B9B6839
:10329000524A43F460439360504B9B6823F0F00222
:1032A0007B689B684D4913438B607B681B6803F008
:1032B0000103002B44D07B685B68012B07D1474B8F
:1032C0001B6803F40033002B19D101237FE07B68D6
:1032D0005B68022B03D07B685B68032B07D13F4BF5
:1032E0001B6803F00073002B09D101236FE03B4BF7
:1032F0001B6803F00203002B01D1012367E0374B69
:103300009B6823F003027B685B68344913438B603E
:10331000FFF752FAF8600AE0FFF74EFA0246FB6840
:10332000D31A41F28832934201D903234FE02B4B49
:103330009B6803F00C027B685B689B009A42EBD1B0
:10334000254B1B6803F007033A689A420CD2224BC4
:103350003A68D2B21A70204B1B6803F007033A6830
:103360009A4201D0012332E07B681B6803F004031A
:10337000002B08D0194B9B6823F4E0527B68DB6874
:10338000164913438B607B681B6803F00803002B0E
:1033900009D0124B9B6823F460427B681B69DB00F9
:1033A0000E4913438B6000F021F802460B4B9B68DB
:1033B0001B0903F00F030A49CB5C22FA03F3094A05
:1033C0001360094B1B681846FFF7B2F90023184633
:1033D0001037BD4680BD00BF003C024000380240AF
:1033E000447B0008080000200C0000202DE9B04FAD
:1033F00090B000AF00237B630023FB6300233B639B
:103400000023BB63594B9B6803F00C03082B0DD0C2
:10341000082B00F2A180002B02D0042B03D09BE0EC
:10342000534BBB639BE0534BBB6398E04F4B5B68D4
:1034300003F03F037B634D4B5B6803F48003002B79
:1034400028D04A4B5B689B0900223B627A623B6A48
:10345000C3F308000021474B03FB01F2002300FBEC
:1034600003F31344434AA0FB0212FA620A46BA620B
:10347000FA6A1344FB627B6B0022BB61FA61D7E9F5
:103480000623D7E90A01FDF7E7FB02460B46134680
:10349000FB6353E0354B5B689B0900223B617A611B
:1034A0003B69C3F3080A4FF0000B52465B464FF0EE
:1034B00000004FF00001590141EAD261500102467B
:1034C0000B46B2EB0A0863EB0B094FF000024FF01A
:1034D00000034FEA891343EA98634FEA8812B2EB7C
:1034E000080463EB09054FF000024FF00003EB0006
:1034F00043EA5473E20014461D4614EB0A033B6092
:1035000045EB0B037B604FF000024FF00003D7E95F
:10351000004529468B02214643EA915321468A02FF
:10352000104619467B6B0022BB60FA60D7E9022384
:10353000FDF792FB02460B461346FB630B4B5B68A1
:103540001B0C03F0030301335B003B63FA6B3B6B23
:10355000B2FBF3F3BB6302E0054BBB6300BFBB6B85
:1035600018464037BD46BDE8B08F00BF0038024066
:103570000024F40040787D0180B400AF034B1B6849
:103580001846BD465DF8047B704700BF0800002068
:1035900080B500AFFFF7F0FF0246054B9B689B0A22
:1035A00003F007030349CB5C22FA03F3184680BDFE
:1035B00000380240547B000880B500AFFFF7DCFF05
:1035C0000246054B9B685B0B03F007030349CB5C8A
:1035D00022FA03F3184680BD00380240547B0008ED
:1035E00080B582B000AF78607B68002B01D10123E9
:1035F00042E07B6893F84130DBB2002B06D17B6858
:10360000002283F840207868FEF7B6FE7B6824220B
:1036100083F841207B681B68DA687B681B6822F4AA
:103620000052DA60786800F073F97B681B681A69E9
:103630007B681B6822F490421A617B681B685A6998
:103640007B681B6822F02A025A617B681B68DA6873
:103650007B681B6842F40052DA607B6800225A647F
:103660007B68202283F841207B68202283F8422057
:103670007B6800225A63002318460837BD4680BD88
:1036800080B58AB002AFF860B9603B601346FB803A
:1036900000237B61FB6893F84130DBB2202B75D1AE
:1036A000BB68002B02D0FB88002B01D101236EE008
:1036B000FB6800225A64FB68212283F84120FFF74F
:1036C0007BF87861FB68FA889A84FB68FA88DA8468
:1036D000FB689B68B3F5805F08D1FB681B69002B12
:1036E00004D10023FB61BB68BB6103E0BB68FB61E5
:1036F0000023BB612EE03B6800937B6900228021A0
:10370000F86800F048F80346002B05D0FB6820223B
:1037100083F8412003233AE0FB69002B0BD1BB69FE
:103720001B881A46FB681B68C2F308025A60BB6913
:103730000233BB6107E0FB691A78FB681B685A60BB
:10374000FB690133FB61FB68DB8C9BB2013B9AB2E6
:10375000FB68DA84FB68DB8C9BB2002BCBD13B6827
:1037600000937B6900224021F86800F014F80346BA
:10377000002B05D0FB68202283F84120032306E0BC
:10378000FB68202283F84120002300E00223184632
:103790002037BD4680BD80B586B000AFF860B96007
:1037A0003B601346FB713BE03B6AB3F1FF3F37D010
:1037B000FFF702F802463B68D31A3A6A9A4202D3EC
:1037C0003B6A002B01D103233AE0FB681B68DB68EE
:1037D00003F00403002B23D0BB68802B20D0BB68F0
:1037E000402B1DD0FB681B681B6803F00803082BE7
:1037F00016D100237B61FB681B681B687B61FB683B
:103800001B685B687B617B69F86800F01DF8FB68EA
:1038100008225A64FB68002283F8402001230FE04D
:10382000FB681B681A68BB681340BA689A420CBFF1
:1038300001230023DBB21A46FB799A42B4D000235D
:1038400018461837BD4680BD80B495B000AF78608B
:103850007B681B680C337B637B6B53E8003F3B63E7
:103860003B6B23F49073FB647B681B680C33FA6C2E
:103870003A64FB63F96B3A6C41E80023BB63BB6BB2
:10388000002BE5D17B681B6814333B623B6A53E82D
:10389000003FFB61FB6923F00103BB647B681B688D
:1038A0001433BA6CFA62BB62B96AFA6A41E800235F
:1038B0007B627B6A002BE5D17B681B6B012B19D1E6
:1038C0007B681B680C33FB60FB6853E8003FBB6000
:1038D000BB6823F010037B647B681B680C337A6C35
:1038E000BA617B617969BA6941E800233B613B6950
:1038F000002BE5D17B68202283F842207B680022E0
:103900001A6300BF5437BD465DF8047B7047000062
:103910002DE9B04FC0B000AFC7F8F400D7F8F430CD
:103920001B681B6923F44050D7F8F430D968D7F8E6
:10393000F4301A6840EA01031361D7F8F4309A684A
:10394000D7F8F4301B691A43D7F8F4305B691A438F
:10395000D7F8F430DB691343C7F8F830D7F8F43000
:103960001B68DB6823F4164121F00C01D7F8F43012
:103970001A68D7F8F8300B43D360D7F8F4301B68D7
:103980005B6923F44070D7F8F4309969D7F8F430C4
:103990001A6840EA01035361D7F8F4301A688F4B74
:1039A0009A4205D0D7F8F4301A688D4B9A4204D168
:1039B000FFF702FEC7F8FC0003E0FFF7E9FDC7F8D8
:1039C000FC00D7F8F430DB69B3F5004F40F00C8110
:1039D000D7F8FC300022C7F8E830C7F8EC20D7E968
:1039E0003A4522462B469118B9655B41FB65D7E9FC
:1039F0001623214612EB0108294643EB01094FF03B
:103A000000024FF000034FEAC90343EA58734FEA3C
:103A1000C80290469946234618EB0303C7F8E030E6
:103A20002B4649EB0303C7F8E430D7F8F4305B6862
:103A30000022C7F8D830C7F8DC20D7E936120B4689
:103A4000DB183B65134642EB03037B65D7E9142380
:103A5000D7E93801FDF700F902460B46614BA3FB9D
:103A600002235B091C01D7F8FC300022C7F8D030D4
:103A7000C7F8D420D7E9348942464B469118B96437
:103A80005B41FB64D7E91223414612EB010A494628
:103A900043EB010B4FF000024FF000034FEACB0362
:103AA00043EA5A734FEACA0292469B4643461AEBD0
:103AB0000303C7F8C8304B464BEB0303C7F8CC30C1
:103AC000D7F8F4305B680022C7F8C030C7F8C420CC
:103AD000D7E930120B46DB183B64134642EB030375
:103AE0007B64D7E91023D7E93201FDF7B5F8024628
:103AF0000B4611463B4BA3FB01235B09642202FBEF
:103B000003F3CB1ADB0003F13202364BA3FB022393
:103B10005B095B0003F4F8731C44D7F8FC30002207
:103B2000C7F8B830C7F8BC20D7E92E8942464B46C3
:103B30009118B9635B41FB63D7E90E2341465118E5
:103B4000396349464B417B634FF000024FF000035D
:103B5000D7E90CAB5946CB00514643EA5173514665
:103B6000CA0010461946034642469B18C7F8B030B3
:103B70004B460A4642EB0303C7F8B430D7F8F4309B
:103B80005B680022C7F8A830C7F8AC20D7E92A1232
:103B90000B46DB18BB62134642EB0303FB62D7E91B
:103BA0000A23D7E92C01FDF757F802460B460D4BC7
:103BB000A3FB02135B09642101FB03F3D31ADB00AF
:103BC0003233084AA2FB03235B0903F00702D7F84C
:103BD000F4301B6822449A6006E100BF00100140E7
:103BE000001401401F85EB51D7F8FC300022C7F8C4
:103BF000A030C7F8A420D7E9288942464B4691183F
:103C000039625B417B62D7E9082341465418494633
:103C100043EB01054FF000024FF00003EB0043EAD5
:103C20005473E20014461D464346E318C7F8983023
:103C30004B4645EB0303C7F89C30D7F8F4305B687C
:103C40000022C7F89030C7F894204FF000024FF0E0
:103C50000003D7E9244529468B00214643EA9173A6
:103C600021468A00D7E92601FCF7F6FF02460B46FB
:103C7000604BA3FB02235B091C01D7F8FC30002238
:103C8000C7F88830C7F88C20D7E9228942464B46CE
:103C90009118B9615B41FB61D7E906234146511890
:103CA000396149464B417B614FF000024FF0000300
:103CB000D7E904AB5946CB00514643EA517351460C
:103CC000CA0010461946034642469B18C7F8803082
:103CD0004B460A4642EB0303C7F88430D7F8F4306A
:103CE0005B680022BB67FA674FF000024FF00003E9
:103CF000D7E91E8949468B00414643EA9173414604
:103D00008A00D7E92001FCF7A7FF02460B461146BF
:103D1000384BA3FB01235B09642202FB03F3CB1A9C
:103D20001B013233334AA2FB03235B0903F0F00388
:103D30001C44D7F8FC3000223B677A67D7E91C891E
:103D400042464B469118B9605B41FB60D7E90223BC
:103D500041465118396049464B417B604FF00002A3
:103D60004FF00003D7E900AB5946CB00514643EA78
:103D700051735146CA0010461946034642469B18E5
:103D8000BB664B460A4642EB0303FB66D7F8F430AA
:103D90005B6800223B667A664FF000024FF000033A
:103DA000D7E9188949468B00414643EA9173414659
:103DB0008A00D7E91A01FCF74FFF02460B460D4B6C
:103DC000A3FB02135B09642101FB03F3D31A1B015C
:103DD0003233084AA2FB03235B0903F00F02D7F832
:103DE000F4301B6822449A6000BF07F58077BD4617
:103DF000BDE8B08F1F85EB510A22002100F082B888
:103E0000012B2DE9F04701D0242B06D900F062FEEA
:103E1000162303600020BDE8F087DFF8E4C00D46FC
:103E20002E4615F8014B1CF8047017F00807F7D15F
:103E30002D2C32D12C780127B51C002B5BD0102BF8
:103E400009D1302C07D12C7804F0DF04582C4DD147
:103E50006C781023023507F1004808F1FF384FF065
:103E6000000EB8FBF3F9764603FB198AA4F1300C77
:103E7000BCF1090F16D86446A34224DDBEF1FF3F12
:103E800008D0B1451CD301D1A24519DB06FB03467E
:103E90004FF0010E15F8014BE8E72B2C04BF2C78EE
:103EA000B51CCAE7A4F1410CBCF1190F01D8373C8D
:103EB000E2E7A4F1610CBCF1190F04D8573CDBE731
:103EC0004FF0FF3EE6E7BEF1FF3F05D1222303603E
:103ED000464642B930469EE707B17642002AF9D0FD
:103EE000BEF1000F00D0691E1160F3E73024002BF3
:103EF000B1D10823AFE7302CA5D00A23ABE700BF30
:103F00005D7B000813460A46014602480068FFF739
:103F100077BF00BF6C0000202DE9FF4755EC104B28
:103F2000002D0E4619462B46BBBF05F100431D462A
:103F300000232D230B700D9BDDF830A0914623F05C
:103F40002008BCBF22461446B8F1460F05D0B8F190
:103F5000450F00D10136022100E0032103AB01939C
:103F600002AB009345EC104B5346324600F068FE1E
:103F7000B8F1470F074602D119F0010F22D0B8F16E
:103F8000460F07EB060910D13B78302B0AD10022EF
:103F9000002320462946FCF79FFD18B9C6F101060B
:103FA000CAF80060DAF80030994400220023204665
:103FB0002946FCF791FD08B1CDF80C903022039B07
:103FC0004B4507D3039B0E9ADB1B3846136004B0A6
:103FD000BDE8F087591C03911A70F0E7F7B5034666
:103FE0000029B8BF494203F8022BB4BF2D222B226F
:103FF000092942702ADD0DF1070217460A26944668
:1040000091FBF6F506FB151430340CF8014C0C4608
:10401000632C02F1FF322946F1DC3031ACF10204AD
:1040200002F8011C411C2246BA420AD30DF10902D2
:10403000A2EB0C02BC4288BF00221344181A03B042
:10404000F0BD12F8015B01F8015FEDE7302330317C
:104050008370C170031DF1E72DE9F04F2DED028B48
:104060008DB00C46DDF8608016461F46054600F010
:10407000E7FCD0F800A05046FCF702F900230A93B1
:1040800023680593D8F8003094F818B0073323F06C
:10409000070303F10802C8F80020D3E9008929F0DA
:1040A00000430793CDF8188008EE100AC4E912897E
:1040B000DDE906019E4B4FF0FF32FCF73FFD88BB68
:1040C000DDE906019A4B4FF0FF32FCF719FD48BBC2
:1040D0000022002340464946FCF708FD10B12D237D
:1040E00084F84330934A944BBBF1470F94BF9046FA
:1040F000984603232361059B23F0040323604FF0BC
:104100000009009733460BAA2146284600F0DAF949
:10411000013040F090804FF0FF300DB0BDEC028BCD
:10412000BDE8F08F42464B4640464946FCF706FD47
:1041300040B14B46002BBCBF2D2384F843307F4A4F
:104140007F4BD1E763680BF0DF0206925A1C3FD128
:1041500006236360059B616843F480620023039338
:104160000AABCDE901B309AB49EC108B0093226097
:104170000DF123032846FFF7CFFE069B0999472B35
:10418000804608D1C81C02DB6368994241DDABF16F
:1041900002035FFA83FBBBF1650F20D801395A4651
:1041A00004F150000991FFF719FF0A9A1318012A28
:1041B0008146236102DC2268D20701D501332361E5
:1041C0009DF82330002B9CD02D2384F8433098E7B2
:1041D000069A472ABED1002BBCD10123B9E7BBF117
:1041E000660F18D1002963680BDD216113B92268BD
:1041F000D00702D501330B442361A1654FF00009BC
:10420000DEE713B92268D20701D50233F4E70123B0
:10421000F2E74FF0670B0A9B994205DB23682161A7
:10422000D807EAD54B1CE7E70029D4BFC1F1020249
:1042300001221344E0E723685A0507D42369424664
:1042400031462846B84701302CD164E7BBF1650FF1
:1042500040F2E080D4E9120100220023FCF73CFC8C
:10426000002834D0374A012331462846B847013068
:104270003FF451AFDDE909239A4202DB2368D807F6
:1042800010D518EE103A524631462846B84701304C
:104290003FF441AF4FF0000804F11A090A9B013BBB
:1042A000434509DC23689B0700F10781E0680B9B0D
:1042B0009842B8BF184630E701234A46314628469F
:1042C000B84701303FF427AF08F10108E6E7099B42
:1042D000002B39DC1B4A012331462846B847013000
:1042E0003FF419AFDDE90932134302D12368D9073E
:1042F000D8D518EE103A524631462846B847013014
:104300003FF409AF4FF0000904F11A0A099B5B4220
:104310004B4501DC0A9B92E7012352463146284671
:10432000B84701303FF4F7AE09F10109EEE700BFED
:10433000FFFFEF7F5D7C0008617C0008657C000862
:10434000697C00086D7C00080A9AA36D9A42A8BF98
:104350001A46002A914637DC4FF0000B29EAE9792A
:1043600004F11A02A36D0593A3EB09035B4533DC4B
:10437000DDE909239A423BDB2368DA0738D4DDE91B
:104380000932A2EB0309059BD21A9145A8BF9146B9
:10439000B9F1000F35DC4FF0000829EAE97904F1A2
:1043A0001A0ADDE909239B1AA3EB090343457FF7AA
:1043B00079AF0123524631462846B84701303FF4D1
:1043C000AAAE08F10108ECE71346314642462846FA
:1043D000B8470130C0D19EE60123314628460592F8
:1043E000B84701303FF497AE059A0BF1010BB9E7DE
:1043F00018EE103A524631462846B8470130BED131
:1044000089E6059A4B46424431462846B847013072
:10441000C1D180E60A9A012A01DCDB073AD50123E3
:10442000424631462846B84701303FF474AE18EE94
:10443000103A524631462846B84701303FF46BAE39
:10444000D4E9120100220023DDF828A0FCF744FB88
:10445000D8B90AF1FF3308F1010231462846B847BE
:1044600001300ED157E60123524631462846B8475F
:1044700001303FF450AE08F101080A9B013B43456F
:10448000F1DC4B4604F15002DAE64FF0000804F18B
:104490001A0AF2E701234246DFE701234A46314682
:1044A0002846B84701303FF436AE08F10108E3680A
:1044B0000B995B1A4345F0DCF8E64FF0000804F175
:1044C0001909F4E72DE9F047164699468A680B6901
:1044D000DDF820809342B8BF1346336091F8432043
:1044E00007460C460AB1013333602368990642BF80
:1044F000336802333360256815F0060506D104F1F0
:10450000190AE36832689B1AAB4226DC94F8432010
:10451000131E226818BF012392062BD404F1430214
:1045200049463846C04701301ED02368226903F04F
:104530000603042B02BFE5683368ED1AA3680CBFBD
:1045400025EAE57500259342C4BF9B1AED180026A5
:104550001A34B5421AD1002008E0012352464946D8
:104560003846C047013003D14FF0FF30BDE8F08737
:104570000135C6E7E1185A1C302081F84300224477
:1045800094F8451082F843100233C7E7012322460E
:1045900049463846C0470130E6D00136D9E7000029
:1045A0002DE9FF470F7E0C9D782F914680460C46E3
:1045B0009A4601F1430207D8622F0AD8002F00F073
:1045C000D480582F00F0C08004F1420584F8427076
:1045D0003AE0A7F16303152BF6D801A151F823F0B7
:1045E000394600084D460008C9450008C94500087D
:1045F000C9450008C94500084D460008C9450008DE
:10460000C9450008C9450008C945000851470008C8
:10461000794600080B470008C9450008C94500084D
:1046200073470008C945000879460008C9450008D5
:10463000C9450008134700082B681A1D1B682A602B
:1046400004F1420584F8423001239FE020682B6882
:10465000070603F10401296001D51E6803E0460640
:10466000FBD5B3F90060002E03DA2D23764284F8DF
:1046700043305A480A2312E02B682068191D29602C
:10468000050601D51E6802E04106FBD51E88534889
:104690006F2F0CBF08230A23002184F8431065689C
:1046A000A560002DA2BF216821F0040121600EB990
:1046B000002D4BD01546B6FBF3F103FB1167C75D28
:1046C00005F8017D3746BB420E46F4D9082B0BD1C5
:1046D0002368DE0708D5236961689942DEBF30236D
:1046E00005F8013C05F1FF35521B2261CDF800A011
:1046F0004B4603AA21464046FFF7E4FE01304AD16B
:104700004FF0FF3004B0BDE8F087236843F020038A
:1047100023603348782784F84570236829681F068A
:1047200051F8046B02D45F0648BFB6B2DF0748BF3A
:1047300043F02003296048BF23601EB9236823F09B
:10474000200323601023A7E72448E4E71546BDE7CC
:104750002B6826686169181D286035061B6801D51D
:10476000196002E07006FBD519800023236115460D
:10477000BCE72B681A1D2A601D6862680021284664
:10478000FBF72EFD08B1401B6060636823610023C6
:1047900084F84330AAE723692A4649464046D04771
:1047A0000130ADD023689B0713D4E068039B984287
:1047B000B8BF1846A6E70123324649464046D047CF
:1047C00001309DD00135E36803995B1AAB42F2DCFE
:1047D000EBE7002504F11906F5E700BF6F7C000840
:1047E000807C0008002310B50446C0E90033C0E90E
:1047F0000433836081814366C28183611946082244
:104800005C3000F014F90D4B63620D4BA3620D4B4D
:10481000E3620D4B23630D4B24629C4206D003F1EF
:104820006802944202D0D0339C4205D104F1580072
:10483000BDE8104000F078B910BD00BFA9490008DC
:10484000CB490008034A0008274A000858080020FE
:10485000024A0349034800F069B800BF1400002071
:10486000D96400082000002041680C4B994210B523
:10487000044601D001F030FEA168094B994202D0F4
:10488000204601F029FEE168064B994204D02046FB
:10489000BDE8104001F020BE10BD00BF5808002048
:1048A000C00800202809002010B50B4B0B4C0C4A07
:1048B0001A60204600220421FFF794FF04F16800EB
:1048C00001220921FFF78EFF04F1D0000222BDE88A
:1048D00010401221FFF786BF9009002058080020E1
:1048E00051480008014800F020B900BF9909002094
:1048F000014800F01BB900BF9909002010B504461B
:10490000FFF7F0FF236A1BB1BDE81040FFF7F0BFCF
:10491000044B2362044B1B68002BF5D1FFF7C4FF47
:10492000F2E700BF69480008900900202DE9F8432C
:104930000746884614460026D4E90195B9F10109D5
:1049400005D52468002CF7D13046BDE8F883AB8943
:10495000012B07D9B5F90E30013303D0294638466B
:10496000C04706436835E9E70EB400B59CB01DABFF
:10497000029006906FF0004109480791049109499F
:1049800053F8042B05910068019302A901F020FC63
:10499000029B00221A701CB05DF804EB03B0704754
:1049A0006C0000200802FFFF10B50C46B1F90E1094
:1049B00000F06CF80028ABBF636DA3891B1823F4CB
:1049C0008053ACBF6365A38110BD2DE9F0411F4644
:1049D0008B89DB0505460C46164605D5B1F90E1048
:1049E0000223002200F040F8A389B4F90E1023F44A
:1049F0008053A38132463B462846BDE8F04100F093
:104A000057B810B50C46B1F90E1000F02DF8431C44
:104A1000A38915BF606523F4805343F48053A381B9
:104A200018BFA38110BDB1F90E1000F00DB80244FB
:104A30000346934200D1704703F8011BF9E70000D9
:104A4000004870476001002038B5064D0023044639
:104A500008462B60FDF7A3FD431C02D12B6803B170
:104A6000236038BD9409002038B5074D0446084638
:104A7000114600222A601A46FDF7B8FD431C02D1F8
:104A80002B6803B1236038BD9409002038B5074D69
:104A900004460846114600222A601A46FDF746FDE4
:104AA000431C02D12B6803B1236038BD9409002058
:104AB00038B5074D04460846114600222A601A46BA
:104AC000FDF751FD431C02D12B6803B1236038BDB3
:104AD00094090020014B1868704700BF6C0000204B
:104AE00070B50D4D0D4C641BA4100026A64209D1D3
:104AF0000B4D0C4C02F0CCFF641BA4100026A64208
:104B000005D170BD55F8043B98470136EEE755F8DE
:104B1000043B98470136F2E7087F0008087F000849
:104B2000087F00080C7F00087047704770472DE928
:104B3000F74F03690C69A34207467EDB013C01F194
:104B4000140800F1140505EB8403019358F8243090
:104B500055F8242001339A424FEA840B08EB84096C
:104B6000B2FBF3F631D34FF0000E4046AC46F246AE
:104B700050F8042B93B206FB03E34FEA124E1A0CD3
:104B80009BB2AAEB0303DCF800A013FA8AF306FB3E
:104B90000E220093009B4FEA124E92B2C2EB1A42D1
:104BA00002EB2342BDF80030814543EA02434CF852
:104BB000043B4FEA224ADBD255F80B302BB9019B5C
:104BC000043B9D421A462CD33C61384601F0A6F9BD
:104BD000002822DB01362946002058F8042BD1F8A2
:104BE00000C093B2C31A120C13FA8CF3C2EB1C422E
:104BF00002EB23429BB243EA0243C14541F8043B26
:104C00004FEA2240E9D255F8242005EB840322B96B
:104C1000043B9D421A460AD33C61304603B0BDE8CE
:104C2000F08F1268043B002ACED1013CC9E712681C
:104C3000043B002AF0D1013CEBE70020EEE7000046
:104C40002DE9F04F2DED048BC56993B08DED020B6E
:104C500057EC106BDDF88080079104460A920D93A3
:104C600075B9102000F02AFE0246E06120B9AE4B73
:104C7000EF21AE4801F090FCC0E901550560C56028
:104C8000E369196851B15A684A60012393408B6007
:104C9000204600F007FFE36900221A603B1EBBBFFD
:104CA00023F00043039300230122ACBFC8F8003077
:104CB000C8F800209E4BDDF80C8033EA08031BD1B6
:104CC0000D9A42F20F731360C8F31303334300F0DD
:104CD0009385219B63B9974B27E0974B009308334B
:104CE000219A1360009813B0BDEC048BBDE8F08FDF
:104CF000904B00930333F3E79DED027B002251ECD0
:104D0000170BB0EE478AF0EE678A0023FBF7E4FE4C
:104D1000814660B10D9A01231360219B002B00F0A6
:104D20006885864B219A1360013B0093DAE710AA4D
:104D300011A92046B0EE480AF0EE680A01F094F995
:104D4000C8F30A558246002D7FD018EE903AC3F37F
:104D5000130343F07F5351EC180B43F44013A5F2B7
:104D6000FF35CDF8389019460022754BFBF794FAC1
:104D700067A3D3E90023FBF747FC67A3D3E900232C
:104D8000FBF78CFA064628460F46FBF7D3FB64A3D5
:104D9000D3E90023FBF738FC02460B463046394680
:104DA000FBF77CFA06460F46FBF7DEFE0022834641
:104DB000002330463946FBF799FE48B15846FBF7C9
:104DC000B9FB32463B46FBF787FE08B90BF1FF3BC8
:104DD000BBF1160F57D85B4B03EBCB03D3E9002392
:104DE00051EC180BFBF782FE00284ED00BF1FF3B75
:104DF00000230C93109B5B1B5A1E45BFC3F101039C
:104E0000059300230023069254BF05930693BBF13C
:104E1000000F3CDB069BCDF82CB05B4406930023CF
:104E20000893079B092B68D8052BC4BF043B079345
:104E3000079BA3F10203CCBF00250125032B00F241
:104E40008580DFE803F02E3B3958DDE910531D441F
:104E500005F23243202BC1BFC3F1400308FA03F827
:104E600005F2124326FA03F3D6BFC3F1200348EA42
:104E7000030006FA03F0FBF74DFB0122A1F1F873E2
:104E8000013D0E926FE70123B3E70C90B2E7059B5B
:104E9000A3EB0B030593CBF10003089300230B93C3
:104EA000BFE7002309930A9B002B52DC01230193E7
:104EB00004931A460A920BE00123F3E700230993B7
:104EC0000A9B5B4401930133012B0493B8BF012378
:104ED000E0690021042202F114069E423DD941609E
:104EE000204600F09FFD0090002839D1164B024665
:104EF00040F2AF11BDE60123E1E70125002307934E
:104F000009954FF0FF330193049300221223D1E758
:104F100061436F63A787D23FB3C8608B288AC63FBF
:104F2000FB799F501344D33F9E7C0008B57C00085A
:104F30000000F07F9A7C0008917C00086E7C0008DD
:104F40000000F83FA07D00080D7D000801230993B3
:104F5000D7E70A9B01930493BAE701315200BAE7FD
:104F6000E369009A1A60049B0E2B00F2A880002DC2
:104F700000F0A580BBF1000F38DDC04B0BF00F0235
:104F800003EBC2031BF4807FD3E900674FEA2B18C1
:104F900019D0BB4B51EC180BD3E90823FBF75EFC8F
:104FA000CDE9020108F00F080325DFF8D492B8F12B
:104FB000000F0AD1DDE9020132463B46FBF74EFC09
:104FC000CDE902012BE00225EFE718F0010F08D030
:104FD00030463946D9E90023FBF716FB0135064672
:104FE0000F464FEA680809F10809E0E700F09F80E2
:104FF000CBF10006A14BA24F06F00F0203EBC20358
:10500000D3E9002351EC180BFBF7FEFACDE90201BE
:10501000361100230225002E7ED1002BD0D10C9B0F
:10502000DDE90289002B00F08480964B0022404687
:105030004946FBF75BFD00287BD0049B002B78D012
:10504000019B002B39DD904B002240464946FBF77F
:10505000DBFACDE90201019E0BF1FF370135DDE9F5
:1050600002892846FBF766FA42464B46FBF7CCFA24
:10507000864B0022FBF712F9A1F15073CDE9020132
:105080000393002E58D1824B002240464946FBF73D
:1050900003F9DDE9022380468946FBF745FD002838
:1050A00040F09682DDE90221404601F10043494685
:1050B000FBF71CFD002840F089828DED028B119BCF
:1050C000002BC0F24E81BBF10E0F00F34A816B4BF7
:1050D00003EBCB03D3E900890A9B002B80F2DC8031
:1050E000049B002B00F3D88040F06F82684B0022B5
:1050F00040464946FBF788FADDE90223FBF70AFD43
:10510000049E3746002840F04582009D312305F873
:10511000013B0BF1010B41E2F20705D5D7E9002372
:10512000FBF772FA013501237610083773E7022581
:1051300075E7049E5F4692E70099504B9DED027B18
:10514000314402910999B0EE479AF0EE679A03EB69
:10515000C60353E90223002944D04E490020FBF73F
:105160007DFB53EC192BFBF797F8009D41EC190BD5
:1051700049464046FBF7F8FC0646FBF7DBF90246DA
:105180000B4640464946FBF787F8303605F8016B79
:1051900053EC192B80468946FBF7A8FC002864D104
:1051A00042464B4637490020FBF776F853EC192B63
:1051B000FBF79CFC002840F0B680029B9D423FF428
:1051C0007CAF314B51EC190B0022FBF71DFA2E4B33
:1051D00041EC190B002240464946FBF715FA804680
:1051E0008946C5E751EC170BFBF70EFA029B009DB1
:1051F0000F9341EC190B49464046FBF7B5FC0646B8
:10520000FBF798F9303602460B4640464946FBF715
:1052100043F805F8016B029B9D42804689464FF09A
:10522000000224D11B4B51EC190BFBF737F8024657
:105230000B4640464946FBF777FC002873D153ECF8
:10524000192B14490020FBF727F802460B4640466D
:105250004946FBF74BFC00283FF42FAF0F9D6B1E18
:105260000F9315F8013C302BF8D0BB464AE0064BB3
:10527000FBF7CAF980468946BDE700BFA07D00085C
:10528000787D00080000F03F0000244000001C4032
:10529000000014400000E03FDDE90267009D424647
:1052A0004B4630463946FBF7D9FAFBF75DFC0190D7
:1052B000FBF740F942464B46FBF7A6F902460B4680
:1052C00030463946FAF7E8FF019E049F303605F86C
:1052D000016B009EAE1BB74202460B4634D1FAF773
:1052E000DDFF42464B4606460F46FBF71DFCC8B99C
:1052F00042464B4630463946FBF7EEFB10B1019B68
:10530000DB070FD45146204600F0CCFB00230D9A5A
:105310002B700BF101031360219B002B3FF4E2ACD7
:105320001D60DFE45F462B461D4613F8012D392A28
:1053300006D1009A9A42F7D10099302201370A70BB
:105340001A7801321A7090E7A34B0022FBF75CF940
:105350000022002306460F46FBF7BEFB00289ED026
:10536000D0E7099A002A00F0CA80079A012A00F3C0
:10537000AD800E9A002A00F0A58003F23343089E08
:10538000059D059A1A440592069A01211A44204661
:10539000069200F03DFC074665B1069B002B09DD37
:1053A000AB42059AA8BF2B46D21A0592069AED1A6F
:1053B000D31A0693089BF3B1099B002B00F0A3803E
:1053C000002E10DD39463246204600F0E1FC524600
:1053D00001460746204600F031FC514680462046F3
:1053E00000F060FBC246089B9A1B04D05146204641
:1053F00000F0CEFC82460121204600F009FC0B9B08
:10540000002B064640F381801A460146204600F0F4
:10541000BFFC079B012B06467ADD4FF0000833697D
:1054200006EB8303186900F0A5FBC0F12000069B82
:10543000184410F01F0000F09480C0F12003042BEA
:1054400040F38580059BC0F11C0003440593069B37
:10545000034405440693059B002B05DD51461A467F
:10546000204600F0EFFC8246069B002B05DD31460E
:105470001A46204600F0E6FC06460C9B002B72D034
:105480003146504600F04AFD00286CDA00235146B0
:105490000A22204600F028FB099B0BF1FF3B8246C5
:1054A000002B00F0B081002339460A22204600F08C
:1054B0001BFB019B002B074600F39680079B022BEA
:1054C00059DC91E0109BC3F1360358E7049B5E1E44
:1054D000089BB342BFBF089B0B9A0896F31AB4BF50
:1054E000D2189E1B049BBCBF0B920026002BB7BF9B
:1054F000DDE90423DDE904359D1A002341E7089E18
:10550000059D099F48E7089A70E7079B012B19DC66
:10551000029BBBB9039BC3F313039BB9039B23F00B
:1055200000431B0D1B0583B1059B01330593069BAF
:10553000013306934FF001080B9B002B7FF46FAFF4
:10554000012074E74FF00008F6E79846F4E782D0B0
:10555000059A1C331A440592069A1A441D44069271
:1055600079E70346F4E7049B002B37DC079B022B0B
:1055700034DD049B0193019B63B93146052220462B
:1055800000F0B2FA01460646504600F0C7FC00287B
:105590003FF7BBAD0A9B009D6FEA030B4FF000087D
:1055A0003146204600F07EFA002F3FF4ABAEB8F152
:1055B000000F05D0B84503D04146204600F072FAEE
:1055C0003946204600F06EFA9CE600263746E1E7B1
:1055D000BB46374699E500BF00002440099B002BDD
:1055E00000F0C880049B0193002D05DD39462A4652
:1055F000204600F027FC0746B8F1000F5BD0796821
:10560000204600F00FFA054628B9834B024640F2C7
:10561000EF21FFF72EBB3A690232920007F10C012D
:105620000C3000F0ABFF01222946204600F00AFCB6
:10563000009B01330493DDE9002313440893029B8C
:1056400003F00103B84606930746049B3146013B2D
:1056500050460193FFF76BFA4146029000F1300982
:10566000504600F05BFC3A4605903146204600F07B
:1056700071FCC268054602BB0146504600F04EFC74
:10568000024629462046099200F00CFA079B099A27
:10569000049D43EA0201069B194310D1B9F1390F69
:1056A00029D0059B002B02DD029B03F13109019BF0
:1056B00083F8009074E73846BAE70122E1E7059BDA
:1056C000002B04DB07990B4306990B4320D1002ADA
:1056D000EDDD51460122204600F0B4FB3146824602
:1056E00000F01CFC002803DCE1D119F0010FDED032
:1056F000B9F1390FD8D1019A392313702B461D46C1
:10570000013B15F8012C392A6CD001321A7047E799
:10571000002A07DDB9F1390FEDD0019A09F1010333
:1057200013703DE7049B089A03F8019C934243D011
:10573000514600230A22204600F0D6F9B845824699
:105740004FF000034FF00A024146204607D100F017
:10575000CBF980460746049B0133049375E700F0BC
:10576000C3F93946804600230A22204600F0BCF9DE
:105770000746F0E7049B0193009D31465046FFF732
:10578000D6F900F13009009B05F8019BEA1A019B4C
:10579000934207DD514600230A22204600F0A4F977
:1057A0008246EAE7019B002BC8BF1D46009BD8BF7D
:1057B00001251D444FF0000851460122204600F00B
:1057C00041FB3146824600F0A9FB002896DC02D15D
:1057D00019F0010F92D12B461D4613F8012D302AE6
:1057E000FAD0DDE6009A9A4289D10BF1010B312300
:1057F00096E70A4BFFF799BA219B002B7FF46DAA1D
:10580000074BFFF792BA019B002BB5DC079B022BDD
:105810003FF7B1AEB0E700BF0D7D00086D7C00081A
:10582000917C000837B5002944D051F8043C019020
:10583000002BA1F10404B8BFE41800F0E7F81E4AF9
:105840000198136833B96360146003B0BDE8304059
:1058500000F0E2B8A34208D9256861198B4201BF64
:1058600019685B6849192160EDE71A465B680BB15E
:10587000A342FAD911685518A5420BD124682144D6
:105880005418A3421160E0D11C685B6853600C445B
:105890001460DAE702D90C230360D6E725686119A2
:1058A0008B4204BF19685B68636004BF49192160BB
:1058B0005460CAE703B030BD9C090020024B01468A
:1058C000186800F023B800BF6C00002070B50E4EC1
:1058D0000C463168054611B900F040FE30602146A3
:1058E000284600F03BFE431C0AD0C41C24F00304ED
:1058F000A04207D0211A284600F030FE013001D125
:105900004FF0FF34204670BDA00900202DE9F84378
:10591000CD1C25F0030508350C2D38BF0C25002DB6
:10592000074601DBA94205D90C233B60002630461F
:10593000BDE8F883DFF8D08000F068F8D8F80030D0
:105940001C465CBB29463846FFF7C0FF431C044693
:1059500055D1D8F800402646002E45D1002C48D01D
:1059600023683146384604EB030900F0F7FD814512
:105970003FD121686D1A29463846FFF7A7FF01304D
:1059800037D023682B442360D8F80030002B38D060
:105990005A68A2422BD100225A600FE02268521BA3
:1059A0001FD40B2A17D96119A342256018BF59606B
:1059B000636808BFC8F8001062514B60384604F1B4
:1059C0000B0600F029F826F00706231DF21AAED0C8
:1059D0009B1BA350ABE7A3426268DDD1C8F800204F
:1059E000ECE723466468ACE734467668B4E71346D0
:1059F000CCE70C233B60384600F00EF897E72560B3
:105A0000DCE75B60FFDE00BF9C0900200148FFF778
:105A10008CB800BF980900200148FFF787B800BF85
:105A20009809002070B5C66904460D4676B9102065
:105A3000FFF744FF0246E06120B9184B18486B217C
:105A400000F0AAFDC0E901660660C660E669F36879
:105A500083B1E369DB6853F82500B8B9012101FA85
:105A600005F6721D9200204600F0B4FD60B1C0E959
:105A700001560EE021220421204600F0ABFDE3692F
:105A8000F060DB68002BE4D1002070BD026843F8B1
:105A900025200023C0E90333F7E700BF9E7C000800
:105AA0001E7D000870B5C66905460C4676B9102003
:105AB000FFF704FF0246E86120B9094B09488F212E
:105AC00000F06AFDC0E901660660C6603CB1EB69A2
:105AD0006268DB6853F82210216043F8224070BDF1
